{
  "_format": "hh-sol-artifact-1",
  "contractName": "Verification",
  "sourceName": "contracts/Verification.sol",
  "abi": [
    {
      "inputs": [
        {
          "internalType": "address",
          "name": "registryAddress",
          "type": "address"
        },
        {
          "internalType": "address",
          "name": "verifierAddress",
          "type": "address"
        }
      ],
      "stateMutability": "nonpayable",
      "type": "constructor"
    },
    {
      "anonymous": false,
      "inputs": [
        {
          "indexed": true,
          "internalType": "string",
          "name": "projectId",
          "type": "string"
        },
        {
          "indexed": false,
          "internalType": "uint256",
          "name": "approvedAt",
          "type": "uint256"
        }
      ],
      "name": "MRVApproved",
      "type": "event"
    },
    {
      "anonymous": false,
      "inputs": [
        {
          "indexed": true,
          "internalType": "string",
          "name": "projectId",
          "type": "string"
        }
      ],
      "name": "MRVRejected",
      "type": "event"
    },
    {
      "anonymous": false,
      "inputs": [
        {
          "indexed": true,
          "internalType": "string",
          "name": "projectId",
          "type": "string"
        },
        {
          "indexed": false,
          "internalType": "string",
          "name": "mrvHash",
          "type": "string"
        },
        {
          "indexed": false,
          "internalType": "uint256",
          "name": "submittedAt",
          "type": "uint256"
        }
      ],
      "name": "MRVSubmitted",
      "type": "event"
    },
    {
      "inputs": [],
      "name": "LOCK_PERIOD",
      "outputs": [
        {
          "internalType": "uint256",
          "name": "",
          "type": "uint256"
        }
      ],
      "stateMutability": "view",
      "type": "function"
    },
    {
      "inputs": [
        {
          "internalType": "string",
          "name": "projectId",
          "type": "string"
        }
      ],
      "name": "approveMRV",
      "outputs": [],
      "stateMutability": "nonpayable",
      "type": "function"
    },
    {
      "inputs": [
        {
          "internalType": "string",
          "name": "projectId",
          "type": "string"
        }
      ],
      "name": "getMRV",
      "outputs": [
        {
          "internalType": "string",
          "name": "mrvHash",
          "type": "string"
        },
        {
          "internalType": "uint256",
          "name": "submittedAt",
          "type": "uint256"
        },
        {
          "internalType": "bool",
          "name": "approved",
          "type": "bool"
        },
        {
          "internalType": "uint256",
          "name": "approvedAt",
          "type": "uint256"
        }
      ],
      "stateMutability": "view",
      "type": "function"
    },
    {
      "inputs": [
        {
          "internalType": "string",
          "name": "projectId",
          "type": "string"
        }
      ],
      "name": "isEligible",
      "outputs": [
        {
          "internalType": "bool",
          "name": "",
          "type": "bool"
        }
      ],
      "stateMutability": "view",
      "type": "function"
    },
    {
      "inputs": [],
      "name": "registry",
      "outputs": [
        {
          "internalType": "contract ProjectRegistry",
          "name": "",
          "type": "address"
        }
      ],
      "stateMutability": "view",
      "type": "function"
    },
    {
      "inputs": [
        {
          "internalType": "string",
          "name": "projectId",
          "type": "string"
        }
      ],
      "name": "rejectMRV",
      "outputs": [],
      "stateMutability": "nonpayable",
      "type": "function"
    },
    {
      "inputs": [
        {
          "internalType": "string",
          "name": "projectId",
          "type": "string"
        },
        {
          "internalType": "string",
          "name": "mrvHash",
          "type": "string"
        }
      ],
      "name": "submitMRV",
      "outputs": [],
      "stateMutability": "nonpayable",
      "type": "function"
    },
    {
      "inputs": [],
      "name": "verifier",
      "outputs": [
        {
          "internalType": "address",
          "name": "",
          "type": "address"
        }
      ],
      "stateMutability": "view",
      "type": "function"
    }
  ],
  "bytecode": "0x60806040523480156200001157600080fd5b506040516200192b3803806200192b83398181016040528101906200003791906200020e565b600073ffffffffffffffffffffffffffffffffffffffff168273ffffffffffffffffffffffffffffffffffffffff1603620000a9576040517f08c379a0000000000000000000000000000000000000000000000000000000008152600401620000a090620002b6565b60405180910390fd5b600073ffffffffffffffffffffffffffffffffffffffff168173ffffffffffffffffffffffffffffffffffffffff16036200011b576040517f08c379a0000000000000000000000000000000000000000000000000000000008152600401620001129062000328565b60405180910390fd5b816000806101000a81548173ffffffffffffffffffffffffffffffffffffffff021916908373ffffffffffffffffffffffffffffffffffffffff16021790555080600160006101000a81548173ffffffffffffffffffffffffffffffffffffffff021916908373ffffffffffffffffffffffffffffffffffffffff16021790555050506200034a565b600080fd5b600073ffffffffffffffffffffffffffffffffffffffff82169050919050565b6000620001d682620001a9565b9050919050565b620001e881620001c9565b8114620001f457600080fd5b50565b6000815190506200020881620001dd565b92915050565b60008060408385031215620002285762000227620001a4565b5b60006200023885828601620001f7565b92505060206200024b85828601620001f7565b9150509250929050565b600082825260208201905092915050565b7f496e76616c696420726567697374727920616464726573730000000000000000600082015250565b60006200029e60188362000255565b9150620002ab8262000266565b602082019050919050565b60006020820190508181036000830152620002d1816200028f565b9050919050565b7f496e76616c696420766572696669657220616464726573730000000000000000600082015250565b60006200031060188362000255565b91506200031d82620002d8565b602082019050919050565b60006020820190508181036000830152620003438162000301565b9050919050565b6115d1806200035a6000396000f3fe608060405234801561001057600080fd5b50600436106100885760003560e01c8063484e11671161005b578063484e1167146101155780637b10399914610131578063f36687511461014f578063fb42455f1461018257610088565b806303fb5fb11461008d578063081c8a7b146100a95780631820cabb146100d95780632b7ac3f3146100f7575b600080fd5b6100a760048036038101906100a29190610cd3565b61019e565b005b6100c360048036038101906100be9190610d54565b6104c1565b6040516100d09190610dbc565b60405180910390f35b6100e16106a6565b6040516100ee9190610df0565b60405180910390f35b6100ff6106ae565b60405161010c9190610e4c565b60405180910390f35b61012f600480360381019061012a9190610d54565b6106d4565b005b610139610868565b6040516101469190610ec6565b60405180910390f35b61016960048036038101906101649190610d54565b61088c565b6040516101799493929190610f71565b60405180910390f35b61019c60048036038101906101979190610d54565b610ac6565b005b600160009054906101000a900473ffffffffffffffffffffffffffffffffffffffff1673ffffffffffffffffffffffffffffffffffffffff163373ffffffffffffffffffffffffffffffffffffffff161461022e576040517f08c379a000000000000000000000000000000000000000000000000000000000815260040161022590611009565b60405180910390fd5b60008054906101000a900473ffffffffffffffffffffffffffffffffffffffff1673ffffffffffffffffffffffffffffffffffffffff1663fcfa958e85856040518363ffffffff1660e01b8152600401610289929190611065565b602060405180830381865afa1580156102a6573d6000803e3d6000fd5b505050506040513d601f19601f820116820180604052508101906102ca91906110b5565b610309576040517f08c379a00000000000000000000000000000000000000000000000000000000081526004016103009061112e565b60405180910390fd5b6040518060c0016040528085858080601f016020809104026020016040519081016040528093929190818152602001838380828437600081840152601f19601f82011690508083019250505050505050815260200183838080601f016020809104026020016040519081016040528093929190818152602001838380828437600081840152601f19601f8201169050808301925050505050505081526020014281526020016000151581526020016000815260200160011515815250600285856040516103d792919061117e565b908152602001604051809103902060008201518160000190816103fa91906113c8565b50602082015181600101908161041091906113c8565b506040820151816002015560608201518160030160006101000a81548160ff0219169083151502179055506080820151816004015560a08201518160050160006101000a81548160ff021916908315150217905550905050838360405161047892919061117e565b60405180910390207fb2b9d0bfc12b920a1347582d0bbdd6ea786871fa34311c97c90d98cdc629a8ea8383426040516104b39392919061149a565b60405180910390a250505050565b600080600284846040516104d692919061117e565b90815260200160405180910390206040518060c00160405290816000820180546104ff906111f5565b80601f016020809104026020016040519081016040528092919081815260200182805461052b906111f5565b80156105785780601f1061054d57610100808354040283529160200191610578565b820191906000526020600020905b81548152906001019060200180831161055b57829003601f168201915b50505050508152602001600182018054610591906111f5565b80601f01602080910402602001604051908101604052809291908181526020018280546105bd906111f5565b801561060a5780601f106105df5761010080835404028352916020019161060a565b820191906000526020600020905b8154815290600101906020018083116105ed57829003601f168201915b50505050508152602001600282015481526020016003820160009054906101000a900460ff16151515158152602001600482015481526020016005820160009054906101000a900460ff16151515158152505090508060a001516106725760009150506106a0565b80606001516106855760009150506106a0565b6301e13380816080015161069991906114fb565b4210159150505b92915050565b6301e1338081565b600160009054906101000a900473ffffffffffffffffffffffffffffffffffffffff1681565b600160009054906101000a900473ffffffffffffffffffffffffffffffffffffffff1673ffffffffffffffffffffffffffffffffffffffff163373ffffffffffffffffffffffffffffffffffffffff1614610764576040517f08c379a000000000000000000000000000000000000000000000000000000000815260040161075b90611009565b60405180910390fd5b6002828260405161077692919061117e565b908152602001604051809103902060050160009054906101000a900460ff166107d4576040517f08c379a00000000000000000000000000000000000000000000000000000000081526004016107cb9061157b565b60405180910390fd5b6000600283836040516107e892919061117e565b9081526020016040518091039020905060008160030160006101000a81548160ff02191690831515021790555060008160040181905550828260405161082f92919061117e565b60405180910390207fc19436836ed6d70bf0770d0e53353f4b19a0ff508c191ab904e7e9141683b49f60405160405180910390a2505050565b60008054906101000a900473ffffffffffffffffffffffffffffffffffffffff1681565b60606000806000600286866040516108a592919061117e565b908152602001604051809103902060050160009054906101000a900460ff16610903576040517f08c379a00000000000000000000000000000000000000000000000000000000081526004016108fa9061157b565b60405180910390fd5b60006002878760405161091792919061117e565b90815260200160405180910390206040518060c0016040529081600082018054610940906111f5565b80601f016020809104026020016040519081016040528092919081815260200182805461096c906111f5565b80156109b95780601f1061098e576101008083540402835291602001916109b9565b820191906000526020600020905b81548152906001019060200180831161099c57829003601f168201915b505050505081526020016001820180546109d2906111f5565b80601f01602080910402602001604051908101604052809291908181526020018280546109fe906111f5565b8015610a4b5780601f10610a2057610100808354040283529160200191610a4b565b820191906000526020600020905b815481529060010190602001808311610a2e57829003601f168201915b50505050508152602001600282015481526020016003820160009054906101000a900460ff16151515158152602001600482015481526020016005820160009054906101000a900460ff1615151515815250509050806020015181604001518260600151836080015194509450945094505092959194509250565b600160009054906101000a900473ffffffffffffffffffffffffffffffffffffffff1673ffffffffffffffffffffffffffffffffffffffff163373ffffffffffffffffffffffffffffffffffffffff1614610b56576040517f08c379a0000000000000000000000000000000000000000000000000000000008152600401610b4d90611009565b60405180910390fd5b60028282604051610b6892919061117e565b908152602001604051809103902060050160009054906101000a900460ff16610bc6576040517f08c379a0000000000000000000000000000000000000000000000000000000008152600401610bbd9061157b565b60405180910390fd5b600060028383604051610bda92919061117e565b9081526020016040518091039020905060018160030160006101000a81548160ff0219169083151502179055504281600401819055508282604051610c2092919061117e565b60405180910390207f6f96d652d1145ae738659e73a17c098f500367ee7801d391ba87e165276347fe42604051610c579190610df0565b60405180910390a2505050565b600080fd5b600080fd5b600080fd5b600080fd5b600080fd5b60008083601f840112610c9357610c92610c6e565b5b8235905067ffffffffffffffff811115610cb057610caf610c73565b5b602083019150836001820283011115610ccc57610ccb610c78565b5b9250929050565b60008060008060408587031215610ced57610cec610c64565b5b600085013567ffffffffffffffff811115610d0b57610d0a610c69565b5b610d1787828801610c7d565b9450945050602085013567ffffffffffffffff811115610d3a57610d39610c69565b5b610d4687828801610c7d565b925092505092959194509250565b60008060208385031215610d6b57610d6a610c64565b5b600083013567ffffffffffffffff811115610d8957610d88610c69565b5b610d9585828601610c7d565b92509250509250929050565b60008115159050919050565b610db681610da1565b82525050565b6000602082019050610dd16000830184610dad565b92915050565b6000819050919050565b610dea81610dd7565b82525050565b6000602082019050610e056000830184610de1565b92915050565b600073ffffffffffffffffffffffffffffffffffffffff82169050919050565b6000610e3682610e0b565b9050919050565b610e4681610e2b565b82525050565b6000602082019050610e616000830184610e3d565b92915050565b6000819050919050565b6000610e8c610e87610e8284610e0b565b610e67565b610e0b565b9050919050565b6000610e9e82610e71565b9050919050565b6000610eb082610e93565b9050919050565b610ec081610ea5565b82525050565b6000602082019050610edb6000830184610eb7565b92915050565b600081519050919050565b600082825260208201905092915050565b60005b83811015610f1b578082015181840152602081019050610f00565b60008484015250505050565b6000601f19601f8301169050919050565b6000610f4382610ee1565b610f4d8185610eec565b9350610f5d818560208601610efd565b610f6681610f27565b840191505092915050565b60006080820190508181036000830152610f8b8187610f38565b9050610f9a6020830186610de1565b610fa76040830185610dad565b610fb46060830184610de1565b95945050505050565b7f4e6f7420617574686f72697a6564207665726966696572000000000000000000600082015250565b6000610ff3601783610eec565b9150610ffe82610fbd565b602082019050919050565b6000602082019050818103600083015261102281610fe6565b9050919050565b82818337600083830152505050565b60006110448385610eec565b9350611051838584611029565b61105a83610f27565b840190509392505050565b60006020820190508181036000830152611080818486611038565b90509392505050565b61109281610da1565b811461109d57600080fd5b50565b6000815190506110af81611089565b92915050565b6000602082840312156110cb576110ca610c64565b5b60006110d9848285016110a0565b91505092915050565b7f50726f6a656374206e6f74207265676973746572656400000000000000000000600082015250565b6000611118601683610eec565b9150611123826110e2565b602082019050919050565b600060208201905081810360008301526111478161110b565b9050919050565b600081905092915050565b6000611165838561114e565b9350611172838584611029565b82840190509392505050565b600061118b828486611159565b91508190509392505050565b7f4e487b7100000000000000000000000000000000000000000000000000000000600052604160045260246000fd5b7f4e487b7100000000000000000000000000000000000000000000000000000000600052602260045260246000fd5b6000600282049050600182168061120d57607f821691505b6020821081036112205761121f6111c6565b5b50919050565b60008190508160005260206000209050919050565b60006020601f8301049050919050565b600082821b905092915050565b6000600883026112887fffffffffffffffffffffffffffffffffffffffffffffffffffffffffffffffff8261124b565b611292868361124b565b95508019841693508086168417925050509392505050565b60006112c56112c06112bb84610dd7565b610e67565b610dd7565b9050919050565b6000819050919050565b6112df836112aa565b6112f36112eb826112cc565b848454611258565b825550505050565b600090565b6113086112fb565b6113138184846112d6565b505050565b5b818110156113375761132c600082611300565b600181019050611319565b5050565b601f82111561137c5761134d81611226565b6113568461123b565b81016020851015611365578190505b6113796113718561123b565b830182611318565b50505b505050565b600082821c905092915050565b600061139f60001984600802611381565b1980831691505092915050565b60006113b8838361138e565b9150826002028217905092915050565b6113d182610ee1565b67ffffffffffffffff8111156113ea576113e9611197565b5b6113f482546111f5565b6113ff82828561133b565b600060209050601f8311600181146114325760008415611420578287015190505b61142a85826113ac565b865550611492565b601f19841661144086611226565b60005b8281101561146857848901518255600182019150602085019450602081019050611443565b868310156114855784890151611481601f89168261138e565b8355505b6001600288020188555050505b505050505050565b600060408201905081810360008301526114b5818587611038565b90506114c46020830184610de1565b949350505050565b7f4e487b7100000000000000000000000000000000000000000000000000000000600052601160045260246000fd5b600061150682610dd7565b915061151183610dd7565b9250828201905080821115611529576115286114cc565b5b92915050565b7f4d5256206e6f74207375626d6974746564000000000000000000000000000000600082015250565b6000611565601183610eec565b91506115708261152f565b602082019050919050565b6000602082019050818103600083015261159481611558565b905091905056fea2646970667358221220b595a5008da816420d05b4aa02122e81716475d32bb571e84264da61588fc08664736f6c63430008140033",
  "linkReferences": {},
  "deployedLinkReferences": {}
}