{"contracts/ProjectRegistry.sol":{"ProjectRegistry":{"abi":[{"anonymous":false,"inputs":[{"indexed":true,"internalType":"string","name":"projectId","type":"string"},{"indexed":true,"internalType":"address","name":"ngo","type":"address"}],"name":"ProjectRegistered","type":"event"},{"anonymous":false,"inputs":[{"indexed":true,"internalType":"string","name":"projectId","type":"string"},{"indexed":false,"internalType":"bool","name":"verified","type":"bool"},{"indexed":false,"internalType":"bool","name":"listed","type":"bool"}],"name":"ProjectStatusUpdated","type":"event"},{"inputs":[{"internalType":"string","name":"projectId","type":"string"}],"name":"getProject","outputs":[{"internalType":"address","name":"ngo","type":"address"},{"internalType":"string","name":"plantationHash","type":"string"},{"internalType":"uint256","name":"createdAt","type":"uint256"},{"internalType":"bool","name":"isVerified","type":"bool"},{"internalType":"bool","name":"isListed","type":"bool"}],"stateMutability":"view","type":"function"},{"inputs":[{"internalType":"string","name":"projectId","type":"string"}],"name":"projectExists","outputs":[{"internalType":"bool","name":"","type":"bool"}],"stateMutability":"view","type":"function"},{"inputs":[{"internalType":"string","name":"projectId","type":"string"},{"internalType":"string","name":"plantationHash","type":"string"}],"name":"registerProject","outputs":[],"stateMutability":"nonpayable","type":"function"},{"inputs":[{"internalType":"string","name":"projectId","type":"string"},{"internalType":"bool","name":"verified","type":"bool"},{"internalType":"bool","name":"listed","type":"bool"}],"name":"updateStatus","outputs":[],"stateMutability":"nonpayable","type":"function"}],"evm":{"bytecode":{"linkReferences":{},"object":"608060405234801561001057600080fd5b50610f92806100206000396000f3fe608060405234801561001057600080fd5b506004361061004c5760003560e01c80630d2a049114610051578063177b30101461006d5780634fa691e214610089578063fcfa958e146100bd575b600080fd5b61006b60048036038101906100669190610846565b6100ed565b005b610087600480360381019061008291906108ba565b610210565b005b6100a3600480360381019061009e919061093b565b6104bc565b6040516100b4959493929190610a81565b60405180910390f35b6100d760048036038101906100d2919061093b565b610765565b6040516100e49190610adb565b60405180910390f35b600084846040516100ff929190610b35565b908152602001604051809103902060040160009054906101000a900460ff1661015d576040517f08c379a000000000000000000000000000000000000000000000000000000000815260040161015490610b9a565b60405180910390fd5b6000808585604051610170929190610b35565b90815260200160405180910390209050828160040160016101000a81548160ff021916908315150217905550818160040160026101000a81548160ff02191690831515021790555084846040516101c8929190610b35565b60405180910390207f041c64580d69ece87cd5288ff993632208aa4462363a18bba27621c51589d7b38484604051610201929190610bba565b60405180910390a25050505050565b60008484604051610222929190610b35565b908152602001604051809103902060040160009054906101000a900460ff1615610281576040517f08c379a000000000000000000000000000000000000000000000000000000000815260040161027890610c2f565b60405180910390fd5b6040518060e0016040528085858080601f016020809104026020016040519081016040528093929190818152602001838380828437600081840152601f19601f8201169050808301925050505050505081526020013373ffffffffffffffffffffffffffffffffffffffff16815260200183838080601f016020809104026020016040519081016040528093929190818152602001838380828437600081840152601f19601f820116905080830192505050505050508152602001428152602001600115158152602001600015158152602001600015158152506000858560405161036d929190610b35565b908152602001604051809103902060008201518160000190816103909190610e8a565b5060208201518160010160006101000a81548173ffffffffffffffffffffffffffffffffffffffff021916908373ffffffffffffffffffffffffffffffffffffffff16021790555060408201518160020190816103ed9190610e8a565b506060820151816003015560808201518160040160006101000a81548160ff02191690831515021790555060a08201518160040160016101000a81548160ff02191690831515021790555060c08201518160040160026101000a81548160ff0219169083151502179055509050503373ffffffffffffffffffffffffffffffffffffffff168484604051610482929190610b35565b60405180910390207f3a8f8a448d1a644d16017e531e2d5bc31fc5741cb919f2d72a9f1c3efe11213f60405160405180910390a350505050565b6000606060008060008087876040516104d6929190610b35565b908152602001604051809103902060040160009054906101000a900460ff16610534576040517f08c379a000000000000000000000000000000000000000000000000000000000815260040161052b90610b9a565b60405180910390fd5b6000808888604051610547929190610b35565b90815260200160405180910390206040518060e001604052908160008201805461057090610cad565b80601f016020809104026020016040519081016040528092919081815260200182805461059c90610cad565b80156105e95780601f106105be576101008083540402835291602001916105e9565b820191906000526020600020905b8154815290600101906020018083116105cc57829003601f168201915b505050505081526020016001820160009054906101000a900473ffffffffffffffffffffffffffffffffffffffff1673ffffffffffffffffffffffffffffffffffffffff1673ffffffffffffffffffffffffffffffffffffffff16815260200160028201805461065890610cad565b80601f016020809104026020016040519081016040528092919081815260200182805461068490610cad565b80156106d15780601f106106a6576101008083540402835291602001916106d1565b820191906000526020600020905b8154815290600101906020018083116106b457829003601f168201915b50505050508152602001600382015481526020016004820160009054906101000a900460ff161515151581526020016004820160019054906101000a900460ff161515151581526020016004820160029054906101000a900460ff16151515158152505090508060200151816040015182606001518360a001518460c0015195509550955095509550509295509295909350565b6000808383604051610778929190610b35565b908152602001604051809103902060040160009054906101000a900460ff16905092915050565b600080fd5b600080fd5b600080fd5b600080fd5b600080fd5b60008083601f8401126107ce576107cd6107a9565b5b8235905067ffffffffffffffff8111156107eb576107ea6107ae565b5b602083019150836001820283011115610807576108066107b3565b5b9250929050565b60008115159050919050565b6108238161080e565b811461082e57600080fd5b50565b6000813590506108408161081a565b92915050565b600080600080606085870312156108605761085f61079f565b5b600085013567ffffffffffffffff81111561087e5761087d6107a4565b5b61088a878288016107b8565b9450945050602061089d87828801610831565b92505060406108ae87828801610831565b91505092959194509250565b600080600080604085870312156108d4576108d361079f565b5b600085013567ffffffffffffffff8111156108f2576108f16107a4565b5b6108fe878288016107b8565b9450945050602085013567ffffffffffffffff811115610921576109206107a4565b5b61092d878288016107b8565b925092505092959194509250565b600080602083850312156109525761095161079f565b5b600083013567ffffffffffffffff8111156109705761096f6107a4565b5b61097c858286016107b8565b92509250509250929050565b600073ffffffffffffffffffffffffffffffffffffffff82169050919050565b60006109b382610988565b9050919050565b6109c3816109a8565b82525050565b600081519050919050565b600082825260208201905092915050565b60005b83811015610a035780820151818401526020810190506109e8565b60008484015250505050565b6000601f19601f8301169050919050565b6000610a2b826109c9565b610a3581856109d4565b9350610a458185602086016109e5565b610a4e81610a0f565b840191505092915050565b6000819050919050565b610a6c81610a59565b82525050565b610a7b8161080e565b82525050565b600060a082019050610a9660008301886109ba565b8181036020830152610aa88187610a20565b9050610ab76040830186610a63565b610ac46060830185610a72565b610ad16080830184610a72565b9695505050505050565b6000602082019050610af06000830184610a72565b92915050565b600081905092915050565b82818337600083830152505050565b6000610b1c8385610af6565b9350610b29838584610b01565b82840190509392505050565b6000610b42828486610b10565b91508190509392505050565b7f50726f6a656374206e6f7420666f756e64000000000000000000000000000000600082015250565b6000610b846011836109d4565b9150610b8f82610b4e565b602082019050919050565b60006020820190508181036000830152610bb381610b77565b9050919050565b6000604082019050610bcf6000830185610a72565b610bdc6020830184610a72565b9392505050565b7f50726f6a65637420616c72656164792072656769737465726564000000000000600082015250565b6000610c19601a836109d4565b9150610c2482610be3565b602082019050919050565b60006020820190508181036000830152610c4881610c0c565b9050919050565b7f4e487b7100000000000000000000000000000000000000000000000000000000600052604160045260246000fd5b7f4e487b7100000000000000000000000000000000000000000000000000000000600052602260045260246000fd5b60006002820490506001821680610cc557607f821691505b602082108103610cd857610cd7610c7e565b5b50919050565b60008190508160005260206000209050919050565b60006020601f8301049050919050565b600082821b905092915050565b600060088302610d407fffffffffffffffffffffffffffffffffffffffffffffffffffffffffffffffff82610d03565b610d4a8683610d03565b95508019841693508086168417925050509392505050565b6000819050919050565b6000610d87610d82610d7d84610a59565b610d62565b610a59565b9050919050565b6000819050919050565b610da183610d6c565b610db5610dad82610d8e565b848454610d10565b825550505050565b600090565b610dca610dbd565b610dd5818484610d98565b505050565b5b81811015610df957610dee600082610dc2565b600181019050610ddb565b5050565b601f821115610e3e57610e0f81610cde565b610e1884610cf3565b81016020851015610e27578190505b610e3b610e3385610cf3565b830182610dda565b50505b505050565b600082821c905092915050565b6000610e6160001984600802610e43565b1980831691505092915050565b6000610e7a8383610e50565b9150826002028217905092915050565b610e93826109c9565b67ffffffffffffffff811115610eac57610eab610c4f565b5b610eb68254610cad565b610ec1828285610dfd565b600060209050601f831160018114610ef45760008415610ee2578287015190505b610eec8582610e6e565b865550610f54565b601f198416610f0286610cde565b60005b82811015610f2a57848901518255600182019150602085019450602081019050610f05565b86831015610f475784890151610f43601f891682610e50565b8355505b6001600288020188555050505b50505050505056fea26469706673582212208a82621b21e099a74c906c37a7ba4e77941fc293f05a72c693192343f95d283f64736f6c63430008140033","opcodes":"PUSH1 0x80 PUSH1 0x40 MSTORE CALLVALUE DUP1 ISZERO PUSH2 0x10 JUMPI PUSH1 0x0 DUP1 REVERT JUMPDEST POP PUSH2 0xF92 DUP1 PUSH2 0x20 PUSH1 0x0 CODECOPY PUSH1 0x0 RETURN INVALID PUSH1 0x80 PUSH1 0x40 MSTORE CALLVALUE DUP1 ISZERO PUSH2 0x10 JUMPI PUSH1 0x0 DUP1 REVERT JUMPDEST POP PUSH1 0x4 CALLDATASIZE LT PUSH2 0x4C JUMPI PUSH1 0x0 CALLDATALOAD PUSH1 0xE0 SHR DUP1 PUSH4 0xD2A0491 EQ PUSH2 0x51 JUMPI DUP1 PUSH4 0x177B3010 EQ PUSH2 0x6D JUMPI DUP1 PUSH4 0x4FA691E2 EQ PUSH2 0x89 JUMPI DUP1 PUSH4 0xFCFA958E EQ PUSH2 0xBD JUMPI JUMPDEST PUSH1 0x0 DUP1 REVERT JUMPDEST PUSH2 0x6B PUSH1 0x4 DUP1 CALLDATASIZE SUB DUP2 ADD SWAP1 PUSH2 0x66 SWAP2 SWAP1 PUSH2 0x846 JUMP JUMPDEST PUSH2 0xED JUMP JUMPDEST STOP JUMPDEST PUSH2 0x87 PUSH1 0x4 DUP1 CALLDATASIZE SUB DUP2 ADD SWAP1 PUSH2 0x82 SWAP2 SWAP1 PUSH2 0x8BA JUMP JUMPDEST PUSH2 0x210 JUMP JUMPDEST STOP JUMPDEST PUSH2 0xA3 PUSH1 0x4 DUP1 CALLDATASIZE SUB DUP2 ADD SWAP1 PUSH2 0x9E SWAP2 SWAP1 PUSH2 0x93B JUMP JUMPDEST PUSH2 0x4BC JUMP JUMPDEST PUSH1 0x40 MLOAD PUSH2 0xB4 SWAP6 SWAP5 SWAP4 SWAP3 SWAP2 SWAP1 PUSH2 0xA81 JUMP JUMPDEST PUSH1 0x40 MLOAD DUP1 SWAP2 SUB SWAP1 RETURN JUMPDEST PUSH2 0xD7 PUSH1 0x4 DUP1 CALLDATASIZE SUB DUP2 ADD SWAP1 PUSH2 0xD2 SWAP2 SWAP1 PUSH2 0x93B JUMP JUMPDEST PUSH2 0x765 JUMP JUMPDEST PUSH1 0x40 MLOAD PUSH2 0xE4 SWAP2 SWAP1 PUSH2 0xADB JUMP JUMPDEST PUSH1 0x40 MLOAD DUP1 SWAP2 SUB SWAP1 RETURN JUMPDEST PUSH1 0x0 DUP5 DUP5 PUSH1 0x40 MLOAD PUSH2 0xFF SWAP3 SWAP2 SWAP1 PUSH2 0xB35 JUMP JUMPDEST SWAP1 DUP2 MSTORE PUSH1 0x20 ADD PUSH1 0x40 MLOAD DUP1 SWAP2 SUB SWAP1 KECCAK256 PUSH1 0x4 ADD PUSH1 0x0 SWAP1 SLOAD SWAP1 PUSH2 0x100 EXP SWAP1 DIV PUSH1 0xFF AND PUSH2 0x15D JUMPI PUSH1 0x40 MLOAD PUSH32 0x8C379A000000000000000000000000000000000000000000000000000000000 DUP2 MSTORE PUSH1 0x4 ADD PUSH2 0x154 SWAP1 PUSH2 0xB9A JUMP JUMPDEST PUSH1 0x40 MLOAD DUP1 SWAP2 SUB SWAP1 REVERT JUMPDEST PUSH1 0x0 DUP1 DUP6 DUP6 PUSH1 0x40 MLOAD PUSH2 0x170 SWAP3 SWAP2 SWAP1 PUSH2 0xB35 JUMP JUMPDEST SWAP1 DUP2 MSTORE PUSH1 0x20 ADD PUSH1 0x40 MLOAD DUP1 SWAP2 SUB SWAP1 KECCAK256 SWAP1 POP DUP3 DUP2 PUSH1 0x4 ADD PUSH1 0x1 PUSH2 0x100 EXP DUP2 SLOAD DUP2 PUSH1 0xFF MUL NOT AND SWAP1 DUP4 ISZERO ISZERO MUL OR SWAP1 SSTORE POP DUP2 DUP2 PUSH1 0x4 ADD PUSH1 0x2 PUSH2 0x100 EXP DUP2 SLOAD DUP2 PUSH1 0xFF MUL NOT AND SWAP1 DUP4 ISZERO ISZERO MUL OR SWAP1 SSTORE POP DUP5 DUP5 PUSH1 0x40 MLOAD PUSH2 0x1C8 SWAP3 SWAP2 SWAP1 PUSH2 0xB35 JUMP JUMPDEST PUSH1 0x40 MLOAD DUP1 SWAP2 SUB SWAP1 KECCAK256 PUSH32 0x41C64580D69ECE87CD5288FF993632208AA4462363A18BBA27621C51589D7B3 DUP5 DUP5 PUSH1 0x40 MLOAD PUSH2 0x201 SWAP3 SWAP2 SWAP1 PUSH2 0xBBA JUMP JUMPDEST PUSH1 0x40 MLOAD DUP1 SWAP2 SUB SWAP1 LOG2 POP POP POP POP POP JUMP JUMPDEST PUSH1 0x0 DUP5 DUP5 PUSH1 0x40 MLOAD PUSH2 0x222 SWAP3 SWAP2 SWAP1 PUSH2 0xB35 JUMP JUMPDEST SWAP1 DUP2 MSTORE PUSH1 0x20 ADD PUSH1 0x40 MLOAD DUP1 SWAP2 SUB SWAP1 KECCAK256 PUSH1 0x4 ADD PUSH1 0x0 SWAP1 SLOAD SWAP1 PUSH2 0x100 EXP SWAP1 DIV PUSH1 0xFF AND ISZERO PUSH2 0x281 JUMPI PUSH1 0x40 MLOAD PUSH32 0x8C379A000000000000000000000000000000000000000000000000000000000 DUP2 MSTORE PUSH1 0x4 ADD PUSH2 0x278 SWAP1 PUSH2 0xC2F JUMP JUMPDEST PUSH1 0x40 MLOAD DUP1 SWAP2 SUB SWAP1 REVERT JUMPDEST PUSH1 0x40 MLOAD DUP1 PUSH1 0xE0 ADD PUSH1 0x40 MSTORE DUP1 DUP6 DUP6 DUP1 DUP1 PUSH1 0x1F ADD PUSH1 0x20 DUP1 SWAP2 DIV MUL PUSH1 0x20 ADD PUSH1 0x40 MLOAD SWAP1 DUP2 ADD PUSH1 0x40 MSTORE DUP1 SWAP4 SWAP3 SWAP2 SWAP1 DUP2 DUP2 MSTORE PUSH1 0x20 ADD DUP4 DUP4 DUP1 DUP3 DUP5 CALLDATACOPY PUSH1 0x0 DUP2 DUP5 ADD MSTORE PUSH1 0x1F NOT PUSH1 0x1F DUP3 ADD AND SWAP1 POP DUP1 DUP4 ADD SWAP3 POP POP POP POP POP POP POP DUP2 MSTORE PUSH1 0x20 ADD CALLER PUSH20 0xFFFFFFFFFFFFFFFFFFFFFFFFFFFFFFFFFFFFFFFF AND DUP2 MSTORE PUSH1 0x20 ADD DUP4 DUP4 DUP1 DUP1 PUSH1 0x1F ADD PUSH1 0x20 DUP1 SWAP2 DIV MUL PUSH1 0x20 ADD PUSH1 0x40 MLOAD SWAP1 DUP2 ADD PUSH1 0x40 MSTORE DUP1 SWAP4 SWAP3 SWAP2 SWAP1 DUP2 DUP2 MSTORE PUSH1 0x20 ADD DUP4 DUP4 DUP1 DUP3 DUP5 CALLDATACOPY PUSH1 0x0 DUP2 DUP5 ADD MSTORE PUSH1 0x1F NOT PUSH1 0x1F DUP3 ADD AND SWAP1 POP DUP1 DUP4 ADD SWAP3 POP POP POP POP POP POP POP DUP2 MSTORE PUSH1 0x20 ADD TIMESTAMP DUP2 MSTORE PUSH1 0x20 ADD PUSH1 0x1 ISZERO ISZERO DUP2 MSTORE PUSH1 0x20 ADD PUSH1 0x0 ISZERO ISZERO DUP2 MSTORE PUSH1 0x20 ADD PUSH1 0x0 ISZERO ISZERO DUP2 MSTORE POP PUSH1 0x0 DUP6 DUP6 PUSH1 0x40 MLOAD PUSH2 0x36D SWAP3 SWAP2 SWAP1 PUSH2 0xB35 JUMP JUMPDEST SWAP1 DUP2 MSTORE PUSH1 0x20 ADD PUSH1 0x40 MLOAD DUP1 SWAP2 SUB SWAP1 KECCAK256 PUSH1 0x0 DUP3 ADD MLOAD DUP2 PUSH1 0x0 ADD SWAP1 DUP2 PUSH2 0x390 SWAP2 SWAP1 PUSH2 0xE8A JUMP JUMPDEST POP PUSH1 0x20 DUP3 ADD MLOAD DUP2 PUSH1 0x1 ADD PUSH1 0x0 PUSH2 0x100 EXP DUP2 SLOAD DUP2 PUSH20 0xFFFFFFFFFFFFFFFFFFFFFFFFFFFFFFFFFFFFFFFF MUL NOT AND SWAP1 DUP4 PUSH20 0xFFFFFFFFFFFFFFFFFFFFFFFFFFFFFFFFFFFFFFFF AND MUL OR SWAP1 SSTORE POP PUSH1 0x40 DUP3 ADD MLOAD DUP2 PUSH1 0x2 ADD SWAP1 DUP2 PUSH2 0x3ED SWAP2 SWAP1 PUSH2 0xE8A JUMP JUMPDEST POP PUSH1 0x60 DUP3 ADD MLOAD DUP2 PUSH1 0x3 ADD SSTORE PUSH1 0x80 DUP3 ADD MLOAD DUP2 PUSH1 0x4 ADD PUSH1 0x0 PUSH2 0x100 EXP DUP2 SLOAD DUP2 PUSH1 0xFF MUL NOT AND SWAP1 DUP4 ISZERO ISZERO MUL OR SWAP1 SSTORE POP PUSH1 0xA0 DUP3 ADD MLOAD DUP2 PUSH1 0x4 ADD PUSH1 0x1 PUSH2 0x100 EXP DUP2 SLOAD DUP2 PUSH1 0xFF MUL NOT AND SWAP1 DUP4 ISZERO ISZERO MUL OR SWAP1 SSTORE POP PUSH1 0xC0 DUP3 ADD MLOAD DUP2 PUSH1 0x4 ADD PUSH1 0x2 PUSH2 0x100 EXP DUP2 SLOAD DUP2 PUSH1 0xFF MUL NOT AND SWAP1 DUP4 ISZERO ISZERO MUL OR SWAP1 SSTORE POP SWAP1 POP POP CALLER PUSH20 0xFFFFFFFFFFFFFFFFFFFFFFFFFFFFFFFFFFFFFFFF AND DUP5 DUP5 PUSH1 0x40 MLOAD PUSH2 0x482 SWAP3 SWAP2 SWAP1 PUSH2 0xB35 JUMP JUMPDEST PUSH1 0x40 MLOAD DUP1 SWAP2 SUB SWAP1 KECCAK256 PUSH32 0x3A8F8A448D1A644D16017E531E2D5BC31FC5741CB919F2D72A9F1C3EFE11213F PUSH1 0x40 MLOAD PUSH1 0x40 MLOAD DUP1 SWAP2 SUB SWAP1 LOG3 POP POP POP POP JUMP JUMPDEST PUSH1 0x0 PUSH1 0x60 PUSH1 0x0 DUP1 PUSH1 0x0 DUP1 DUP8 DUP8 PUSH1 0x40 MLOAD PUSH2 0x4D6 SWAP3 SWAP2 SWAP1 PUSH2 0xB35 JUMP JUMPDEST SWAP1 DUP2 MSTORE PUSH1 0x20 ADD PUSH1 0x40 MLOAD DUP1 SWAP2 SUB SWAP1 KECCAK256 PUSH1 0x4 ADD PUSH1 0x0 SWAP1 SLOAD SWAP1 PUSH2 0x100 EXP SWAP1 DIV PUSH1 0xFF AND PUSH2 0x534 JUMPI PUSH1 0x40 MLOAD PUSH32 0x8C379A000000000000000000000000000000000000000000000000000000000 DUP2 MSTORE PUSH1 0x4 ADD PUSH2 0x52B SWAP1 PUSH2 0xB9A JUMP JUMPDEST PUSH1 0x40 MLOAD DUP1 SWAP2 SUB SWAP1 REVERT JUMPDEST PUSH1 0x0 DUP1 DUP9 DUP9 PUSH1 0x40 MLOAD PUSH2 0x547 SWAP3 SWAP2 SWAP1 PUSH2 0xB35 JUMP JUMPDEST SWAP1 DUP2 MSTORE PUSH1 0x20 ADD PUSH1 0x40 MLOAD DUP1 SWAP2 SUB SWAP1 KECCAK256 PUSH1 0x40 MLOAD DUP1 PUSH1 0xE0 ADD PUSH1 0x40 MSTORE SWAP1 DUP2 PUSH1 0x0 DUP3 ADD DUP1 SLOAD PUSH2 0x570 SWAP1 PUSH2 0xCAD JUMP JUMPDEST DUP1 PUSH1 0x1F ADD PUSH1 0x20 DUP1 SWAP2 DIV MUL PUSH1 0x20 ADD PUSH1 0x40 MLOAD SWAP1 DUP2 ADD PUSH1 0x40 MSTORE DUP1 SWAP3 SWAP2 SWAP1 DUP2 DUP2 MSTORE PUSH1 0x20 ADD DUP3 DUP1 SLOAD PUSH2 0x59C SWAP1 PUSH2 0xCAD JUMP JUMPDEST DUP1 ISZERO PUSH2 0x5E9 JUMPI DUP1 PUSH1 0x1F LT PUSH2 0x5BE JUMPI PUSH2 0x100 DUP1 DUP4 SLOAD DIV MUL DUP4 MSTORE SWAP2 PUSH1 0x20 ADD SWAP2 PUSH2 0x5E9 JUMP JUMPDEST DUP3 ADD SWAP2 SWAP1 PUSH1 0x0 MSTORE PUSH1 0x20 PUSH1 0x0 KECCAK256 SWAP1 JUMPDEST DUP2 SLOAD DUP2 MSTORE SWAP1 PUSH1 0x1 ADD SWAP1 PUSH1 0x20 ADD DUP1 DUP4 GT PUSH2 0x5CC JUMPI DUP3 SWAP1 SUB PUSH1 0x1F AND DUP3 ADD SWAP2 JUMPDEST POP POP POP POP POP DUP2 MSTORE PUSH1 0x20 ADD PUSH1 0x1 DUP3 ADD PUSH1 0x0 SWAP1 SLOAD SWAP1 PUSH2 0x100 EXP SWAP1 DIV PUSH20 0xFFFFFFFFFFFFFFFFFFFFFFFFFFFFFFFFFFFFFFFF AND PUSH20 0xFFFFFFFFFFFFFFFFFFFFFFFFFFFFFFFFFFFFFFFF AND PUSH20 0xFFFFFFFFFFFFFFFFFFFFFFFFFFFFFFFFFFFFFFFF AND DUP2 MSTORE PUSH1 0x20 ADD PUSH1 0x2 DUP3 ADD DUP1 SLOAD PUSH2 0x658 SWAP1 PUSH2 0xCAD JUMP JUMPDEST DUP1 PUSH1 0x1F ADD PUSH1 0x20 DUP1 SWAP2 DIV MUL PUSH1 0x20 ADD PUSH1 0x40 MLOAD SWAP1 DUP2 ADD PUSH1 0x40 MSTORE DUP1 SWAP3 SWAP2 SWAP1 DUP2 DUP2 MSTORE PUSH1 0x20 ADD DUP3 DUP1 SLOAD PUSH2 0x684 SWAP1 PUSH2 0xCAD JUMP JUMPDEST DUP1 ISZERO PUSH2 0x6D1 JUMPI DUP1 PUSH1 0x1F LT PUSH2 0x6A6 JUMPI PUSH2 0x100 DUP1 DUP4 SLOAD DIV MUL DUP4 MSTORE SWAP2 PUSH1 0x20 ADD SWAP2 PUSH2 0x6D1 JUMP JUMPDEST DUP3 ADD SWAP2 SWAP1 PUSH1 0x0 MSTORE PUSH1 0x20 PUSH1 0x0 KECCAK256 SWAP1 JUMPDEST DUP2 SLOAD DUP2 MSTORE SWAP1 PUSH1 0x1 ADD SWAP1 PUSH1 0x20 ADD DUP1 DUP4 GT PUSH2 0x6B4 JUMPI DUP3 SWAP1 SUB PUSH1 0x1F AND DUP3 ADD SWAP2 JUMPDEST POP POP POP POP POP DUP2 MSTORE PUSH1 0x20 ADD PUSH1 0x3 DUP3 ADD SLOAD DUP2 MSTORE PUSH1 0x20 ADD PUSH1 0x4 DUP3 ADD PUSH1 0x0 SWAP1 SLOAD SWAP1 PUSH2 0x100 EXP SWAP1 DIV PUSH1 0xFF AND ISZERO ISZERO ISZERO ISZERO DUP2 MSTORE PUSH1 0x20 ADD PUSH1 0x4 DUP3 ADD PUSH1 0x1 SWAP1 SLOAD SWAP1 PUSH2 0x100 EXP SWAP1 DIV PUSH1 0xFF AND ISZERO ISZERO ISZERO ISZERO DUP2 MSTORE PUSH1 0x20 ADD PUSH1 0x4 DUP3 ADD PUSH1 0x2 SWAP1 SLOAD SWAP1 PUSH2 0x100 EXP SWAP1 DIV PUSH1 0xFF AND ISZERO ISZERO ISZERO ISZERO DUP2 MSTORE POP POP SWAP1 POP DUP1 PUSH1 0x20 ADD MLOAD DUP2 PUSH1 0x40 ADD MLOAD DUP3 PUSH1 0x60 ADD MLOAD DUP4 PUSH1 0xA0 ADD MLOAD DUP5 PUSH1 0xC0 ADD MLOAD SWAP6 POP SWAP6 POP SWAP6 POP SWAP6 POP SWAP6 POP POP SWAP3 SWAP6 POP SWAP3 SWAP6 SWAP1 SWAP4 POP JUMP JUMPDEST PUSH1 0x0 DUP1 DUP4 DUP4 PUSH1 0x40 MLOAD PUSH2 0x778 SWAP3 SWAP2 SWAP1 PUSH2 0xB35 JUMP JUMPDEST SWAP1 DUP2 MSTORE PUSH1 0x20 ADD PUSH1 0x40 MLOAD DUP1 SWAP2 SUB SWAP1 KECCAK256 PUSH1 0x4 ADD PUSH1 0x0 SWAP1 SLOAD SWAP1 PUSH2 0x100 EXP SWAP1 DIV PUSH1 0xFF AND SWAP1 POP SWAP3 SWAP2 POP POP JUMP JUMPDEST PUSH1 0x0 DUP1 REVERT JUMPDEST PUSH1 0x0 DUP1 REVERT JUMPDEST PUSH1 0x0 DUP1 REVERT JUMPDEST PUSH1 0x0 DUP1 REVERT JUMPDEST PUSH1 0x0 DUP1 REVERT JUMPDEST PUSH1 0x0 DUP1 DUP4 PUSH1 0x1F DUP5 ADD SLT PUSH2 0x7CE JUMPI PUSH2 0x7CD PUSH2 0x7A9 JUMP JUMPDEST JUMPDEST DUP3 CALLDATALOAD SWAP1 POP PUSH8 0xFFFFFFFFFFFFFFFF DUP2 GT ISZERO PUSH2 0x7EB JUMPI PUSH2 0x7EA PUSH2 0x7AE JUMP JUMPDEST JUMPDEST PUSH1 0x20 DUP4 ADD SWAP2 POP DUP4 PUSH1 0x1 DUP3 MUL DUP4 ADD GT ISZERO PUSH2 0x807 JUMPI PUSH2 0x806 PUSH2 0x7B3 JUMP JUMPDEST JUMPDEST SWAP3 POP SWAP3 SWAP1 POP JUMP JUMPDEST PUSH1 0x0 DUP2 ISZERO ISZERO SWAP1 POP SWAP2 SWAP1 POP JUMP JUMPDEST PUSH2 0x823 DUP2 PUSH2 0x80E JUMP JUMPDEST DUP2 EQ PUSH2 0x82E JUMPI PUSH1 0x0 DUP1 REVERT JUMPDEST POP JUMP JUMPDEST PUSH1 0x0 DUP2 CALLDATALOAD SWAP1 POP PUSH2 0x840 DUP2 PUSH2 0x81A JUMP JUMPDEST SWAP3 SWAP2 POP POP JUMP JUMPDEST PUSH1 0x0 DUP1 PUSH1 0x0 DUP1 PUSH1 0x60 DUP6 DUP8 SUB SLT ISZERO PUSH2 0x860 JUMPI PUSH2 0x85F PUSH2 0x79F JUMP JUMPDEST JUMPDEST PUSH1 0x0 DUP6 ADD CALLDATALOAD PUSH8 0xFFFFFFFFFFFFFFFF DUP2 GT ISZERO PUSH2 0x87E JUMPI PUSH2 0x87D PUSH2 0x7A4 JUMP JUMPDEST JUMPDEST PUSH2 0x88A DUP8 DUP3 DUP9 ADD PUSH2 0x7B8 JUMP JUMPDEST SWAP5 POP SWAP5 POP POP PUSH1 0x20 PUSH2 0x89D DUP8 DUP3 DUP9 ADD PUSH2 0x831 JUMP JUMPDEST SWAP3 POP POP PUSH1 0x40 PUSH2 0x8AE DUP8 DUP3 DUP9 ADD PUSH2 0x831 JUMP JUMPDEST SWAP2 POP POP SWAP3 SWAP6 SWAP2 SWAP5 POP SWAP3 POP JUMP JUMPDEST PUSH1 0x0 DUP1 PUSH1 0x0 DUP1 PUSH1 0x40 DUP6 DUP8 SUB SLT ISZERO PUSH2 0x8D4 JUMPI PUSH2 0x8D3 PUSH2 0x79F JUMP JUMPDEST JUMPDEST PUSH1 0x0 DUP6 ADD CALLDATALOAD PUSH8 0xFFFFFFFFFFFFFFFF DUP2 GT ISZERO PUSH2 0x8F2 JUMPI PUSH2 0x8F1 PUSH2 0x7A4 JUMP JUMPDEST JUMPDEST PUSH2 0x8FE DUP8 DUP3 DUP9 ADD PUSH2 0x7B8 JUMP JUMPDEST SWAP5 POP SWAP5 POP POP PUSH1 0x20 DUP6 ADD CALLDATALOAD PUSH8 0xFFFFFFFFFFFFFFFF DUP2 GT ISZERO PUSH2 0x921 JUMPI PUSH2 0x920 PUSH2 0x7A4 JUMP JUMPDEST JUMPDEST PUSH2 0x92D DUP8 DUP3 DUP9 ADD PUSH2 0x7B8 JUMP JUMPDEST SWAP3 POP SWAP3 POP POP SWAP3 SWAP6 SWAP2 SWAP5 POP SWAP3 POP JUMP JUMPDEST PUSH1 0x0 DUP1 PUSH1 0x20 DUP4 DUP6 SUB SLT ISZERO PUSH2 0x952 JUMPI PUSH2 0x951 PUSH2 0x79F JUMP JUMPDEST JUMPDEST PUSH1 0x0 DUP4 ADD CALLDATALOAD PUSH8 0xFFFFFFFFFFFFFFFF DUP2 GT ISZERO PUSH2 0x970 JUMPI PUSH2 0x96F PUSH2 0x7A4 JUMP JUMPDEST JUMPDEST PUSH2 0x97C DUP6 DUP3 DUP7 ADD PUSH2 0x7B8 JUMP JUMPDEST SWAP3 POP SWAP3 POP POP SWAP3 POP SWAP3 SWAP1 POP JUMP JUMPDEST PUSH1 0x0 PUSH20 0xFFFFFFFFFFFFFFFFFFFFFFFFFFFFFFFFFFFFFFFF DUP3 AND SWAP1 POP SWAP2 SWAP1 POP JUMP JUMPDEST PUSH1 0x0 PUSH2 0x9B3 DUP3 PUSH2 0x988 JUMP JUMPDEST SWAP1 POP SWAP2 SWAP1 POP JUMP JUMPDEST PUSH2 0x9C3 DUP2 PUSH2 0x9A8 JUMP JUMPDEST DUP3 MSTORE POP POP JUMP JUMPDEST PUSH1 0x0 DUP2 MLOAD SWAP1 POP SWAP2 SWAP1 POP JUMP JUMPDEST PUSH1 0x0 DUP3 DUP3 MSTORE PUSH1 0x20 DUP3 ADD SWAP1 POP SWAP3 SWAP2 POP POP JUMP JUMPDEST PUSH1 0x0 JUMPDEST DUP4 DUP2 LT ISZERO PUSH2 0xA03 JUMPI DUP1 DUP3 ADD MLOAD DUP2 DUP5 ADD MSTORE PUSH1 0x20 DUP2 ADD SWAP1 POP PUSH2 0x9E8 JUMP JUMPDEST PUSH1 0x0 DUP5 DUP5 ADD MSTORE POP POP POP POP JUMP JUMPDEST PUSH1 0x0 PUSH1 0x1F NOT PUSH1 0x1F DUP4 ADD AND SWAP1 POP SWAP2 SWAP1 POP JUMP JUMPDEST PUSH1 0x0 PUSH2 0xA2B DUP3 PUSH2 0x9C9 JUMP JUMPDEST PUSH2 0xA35 DUP2 DUP6 PUSH2 0x9D4 JUMP JUMPDEST SWAP4 POP PUSH2 0xA45 DUP2 DUP6 PUSH1 0x20 DUP7 ADD PUSH2 0x9E5 JUMP JUMPDEST PUSH2 0xA4E DUP2 PUSH2 0xA0F JUMP JUMPDEST DUP5 ADD SWAP2 POP POP SWAP3 SWAP2 POP POP JUMP JUMPDEST PUSH1 0x0 DUP2 SWAP1 POP SWAP2 SWAP1 POP JUMP JUMPDEST PUSH2 0xA6C DUP2 PUSH2 0xA59 JUMP JUMPDEST DUP3 MSTORE POP POP JUMP JUMPDEST PUSH2 0xA7B DUP2 PUSH2 0x80E JUMP JUMPDEST DUP3 MSTORE POP POP JUMP JUMPDEST PUSH1 0x0 PUSH1 0xA0 DUP3 ADD SWAP1 POP PUSH2 0xA96 PUSH1 0x0 DUP4 ADD DUP9 PUSH2 0x9BA JUMP JUMPDEST DUP2 DUP2 SUB PUSH1 0x20 DUP4 ADD MSTORE PUSH2 0xAA8 DUP2 DUP8 PUSH2 0xA20 JUMP JUMPDEST SWAP1 POP PUSH2 0xAB7 PUSH1 0x40 DUP4 ADD DUP7 PUSH2 0xA63 JUMP JUMPDEST PUSH2 0xAC4 PUSH1 0x60 DUP4 ADD DUP6 PUSH2 0xA72 JUMP JUMPDEST PUSH2 0xAD1 PUSH1 0x80 DUP4 ADD DUP5 PUSH2 0xA72 JUMP JUMPDEST SWAP7 SWAP6 POP POP POP POP POP POP JUMP JUMPDEST PUSH1 0x0 PUSH1 0x20 DUP3 ADD SWAP1 POP PUSH2 0xAF0 PUSH1 0x0 DUP4 ADD DUP5 PUSH2 0xA72 JUMP JUMPDEST SWAP3 SWAP2 POP POP JUMP JUMPDEST PUSH1 0x0 DUP2 SWAP1 POP SWAP3 SWAP2 POP POP JUMP JUMPDEST DUP3 DUP2 DUP4 CALLDATACOPY PUSH1 0x0 DUP4 DUP4 ADD MSTORE POP POP POP JUMP JUMPDEST PUSH1 0x0 PUSH2 0xB1C DUP4 DUP6 PUSH2 0xAF6 JUMP JUMPDEST SWAP4 POP PUSH2 0xB29 DUP4 DUP6 DUP5 PUSH2 0xB01 JUMP JUMPDEST DUP3 DUP5 ADD SWAP1 POP SWAP4 SWAP3 POP POP POP JUMP JUMPDEST PUSH1 0x0 PUSH2 0xB42 DUP3 DUP5 DUP7 PUSH2 0xB10 JUMP JUMPDEST SWAP2 POP DUP2 SWAP1 POP SWAP4 SWAP3 POP POP POP JUMP JUMPDEST PUSH32 0x50726F6A656374206E6F7420666F756E64000000000000000000000000000000 PUSH1 0x0 DUP3 ADD MSTORE POP JUMP JUMPDEST PUSH1 0x0 PUSH2 0xB84 PUSH1 0x11 DUP4 PUSH2 0x9D4 JUMP JUMPDEST SWAP2 POP PUSH2 0xB8F DUP3 PUSH2 0xB4E JUMP JUMPDEST PUSH1 0x20 DUP3 ADD SWAP1 POP SWAP2 SWAP1 POP JUMP JUMPDEST PUSH1 0x0 PUSH1 0x20 DUP3 ADD SWAP1 POP DUP2 DUP2 SUB PUSH1 0x0 DUP4 ADD MSTORE PUSH2 0xBB3 DUP2 PUSH2 0xB77 JUMP JUMPDEST SWAP1 POP SWAP2 SWAP1 POP JUMP JUMPDEST PUSH1 0x0 PUSH1 0x40 DUP3 ADD SWAP1 POP PUSH2 0xBCF PUSH1 0x0 DUP4 ADD DUP6 PUSH2 0xA72 JUMP JUMPDEST PUSH2 0xBDC PUSH1 0x20 DUP4 ADD DUP5 PUSH2 0xA72 JUMP JUMPDEST SWAP4 SWAP3 POP POP POP JUMP JUMPDEST PUSH32 0x50726F6A65637420616C72656164792072656769737465726564000000000000 PUSH1 0x0 DUP3 ADD MSTORE POP JUMP JUMPDEST PUSH1 0x0 PUSH2 0xC19 PUSH1 0x1A DUP4 PUSH2 0x9D4 JUMP JUMPDEST SWAP2 POP PUSH2 0xC24 DUP3 PUSH2 0xBE3 JUMP JUMPDEST PUSH1 0x20 DUP3 ADD SWAP1 POP SWAP2 SWAP1 POP JUMP JUMPDEST PUSH1 0x0 PUSH1 0x20 DUP3 ADD SWAP1 POP DUP2 DUP2 SUB PUSH1 0x0 DUP4 ADD MSTORE PUSH2 0xC48 DUP2 PUSH2 0xC0C JUMP JUMPDEST SWAP1 POP SWAP2 SWAP1 POP JUMP JUMPDEST PUSH32 0x4E487B7100000000000000000000000000000000000000000000000000000000 PUSH1 0x0 MSTORE PUSH1 0x41 PUSH1 0x4 MSTORE PUSH1 0x24 PUSH1 0x0 REVERT JUMPDEST PUSH32 0x4E487B7100000000000000000000000000000000000000000000000000000000 PUSH1 0x0 MSTORE PUSH1 0x22 PUSH1 0x4 MSTORE PUSH1 0x24 PUSH1 0x0 REVERT JUMPDEST PUSH1 0x0 PUSH1 0x2 DUP3 DIV SWAP1 POP PUSH1 0x1 DUP3 AND DUP1 PUSH2 0xCC5 JUMPI PUSH1 0x7F DUP3 AND SWAP2 POP JUMPDEST PUSH1 0x20 DUP3 LT DUP2 SUB PUSH2 0xCD8 JUMPI PUSH2 0xCD7 PUSH2 0xC7E JUMP JUMPDEST JUMPDEST POP SWAP2 SWAP1 POP JUMP JUMPDEST PUSH1 0x0 DUP2 SWAP1 POP DUP2 PUSH1 0x0 MSTORE PUSH1 0x20 PUSH1 0x0 KECCAK256 SWAP1 POP SWAP2 SWAP1 POP JUMP JUMPDEST PUSH1 0x0 PUSH1 0x20 PUSH1 0x1F DUP4 ADD DIV SWAP1 POP SWAP2 SWAP1 POP JUMP JUMPDEST PUSH1 0x0 DUP3 DUP3 SHL SWAP1 POP SWAP3 SWAP2 POP POP JUMP JUMPDEST PUSH1 0x0 PUSH1 0x8 DUP4 MUL PUSH2 0xD40 PUSH32 0xFFFFFFFFFFFFFFFFFFFFFFFFFFFFFFFFFFFFFFFFFFFFFFFFFFFFFFFFFFFFFFFF DUP3 PUSH2 0xD03 JUMP JUMPDEST PUSH2 0xD4A DUP7 DUP4 PUSH2 0xD03 JUMP JUMPDEST SWAP6 POP DUP1 NOT DUP5 AND SWAP4 POP DUP1 DUP7 AND DUP5 OR SWAP3 POP POP POP SWAP4 SWAP3 POP POP POP JUMP JUMPDEST PUSH1 0x0 DUP2 SWAP1 POP SWAP2 SWAP1 POP JUMP JUMPDEST PUSH1 0x0 PUSH2 0xD87 PUSH2 0xD82 PUSH2 0xD7D DUP5 PUSH2 0xA59 JUMP JUMPDEST PUSH2 0xD62 JUMP JUMPDEST PUSH2 0xA59 JUMP JUMPDEST SWAP1 POP SWAP2 SWAP1 POP JUMP JUMPDEST PUSH1 0x0 DUP2 SWAP1 POP SWAP2 SWAP1 POP JUMP JUMPDEST PUSH2 0xDA1 DUP4 PUSH2 0xD6C JUMP JUMPDEST PUSH2 0xDB5 PUSH2 0xDAD DUP3 PUSH2 0xD8E JUMP JUMPDEST DUP5 DUP5 SLOAD PUSH2 0xD10 JUMP JUMPDEST DUP3 SSTORE POP POP POP POP JUMP JUMPDEST PUSH1 0x0 SWAP1 JUMP JUMPDEST PUSH2 0xDCA PUSH2 0xDBD JUMP JUMPDEST PUSH2 0xDD5 DUP2 DUP5 DUP5 PUSH2 0xD98 JUMP JUMPDEST POP POP POP JUMP JUMPDEST JUMPDEST DUP2 DUP2 LT ISZERO PUSH2 0xDF9 JUMPI PUSH2 0xDEE PUSH1 0x0 DUP3 PUSH2 0xDC2 JUMP JUMPDEST PUSH1 0x1 DUP2 ADD SWAP1 POP PUSH2 0xDDB JUMP JUMPDEST POP POP JUMP JUMPDEST PUSH1 0x1F DUP3 GT ISZERO PUSH2 0xE3E JUMPI PUSH2 0xE0F DUP2 PUSH2 0xCDE JUMP JUMPDEST PUSH2 0xE18 DUP5 PUSH2 0xCF3 JUMP JUMPDEST DUP2 ADD PUSH1 0x20 DUP6 LT ISZERO PUSH2 0xE27 JUMPI DUP2 SWAP1 POP JUMPDEST PUSH2 0xE3B PUSH2 0xE33 DUP6 PUSH2 0xCF3 JUMP JUMPDEST DUP4 ADD DUP3 PUSH2 0xDDA JUMP JUMPDEST POP POP JUMPDEST POP POP POP JUMP JUMPDEST PUSH1 0x0 DUP3 DUP3 SHR SWAP1 POP SWAP3 SWAP2 POP POP JUMP JUMPDEST PUSH1 0x0 PUSH2 0xE61 PUSH1 0x0 NOT DUP5 PUSH1 0x8 MUL PUSH2 0xE43 JUMP JUMPDEST NOT DUP1 DUP4 AND SWAP2 POP POP SWAP3 SWAP2 POP POP JUMP JUMPDEST PUSH1 0x0 PUSH2 0xE7A DUP4 DUP4 PUSH2 0xE50 JUMP JUMPDEST SWAP2 POP DUP3 PUSH1 0x2 MUL DUP3 OR SWAP1 POP SWAP3 SWAP2 POP POP JUMP JUMPDEST PUSH2 0xE93 DUP3 PUSH2 0x9C9 JUMP JUMPDEST PUSH8 0xFFFFFFFFFFFFFFFF DUP2 GT ISZERO PUSH2 0xEAC JUMPI PUSH2 0xEAB PUSH2 0xC4F JUMP JUMPDEST JUMPDEST PUSH2 0xEB6 DUP3 SLOAD PUSH2 0xCAD JUMP JUMPDEST PUSH2 0xEC1 DUP3 DUP3 DUP6 PUSH2 0xDFD JUMP JUMPDEST PUSH1 0x0 PUSH1 0x20 SWAP1 POP PUSH1 0x1F DUP4 GT PUSH1 0x1 DUP2 EQ PUSH2 0xEF4 JUMPI PUSH1 0x0 DUP5 ISZERO PUSH2 0xEE2 JUMPI DUP3 DUP8 ADD MLOAD SWAP1 POP JUMPDEST PUSH2 0xEEC DUP6 DUP3 PUSH2 0xE6E JUMP JUMPDEST DUP7 SSTORE POP PUSH2 0xF54 JUMP JUMPDEST PUSH1 0x1F NOT DUP5 AND PUSH2 0xF02 DUP7 PUSH2 0xCDE JUMP JUMPDEST PUSH1 0x0 JUMPDEST DUP3 DUP2 LT ISZERO PUSH2 0xF2A JUMPI DUP5 DUP10 ADD MLOAD DUP3 SSTORE PUSH1 0x1 DUP3 ADD SWAP2 POP PUSH1 0x20 DUP6 ADD SWAP5 POP PUSH1 0x20 DUP2 ADD SWAP1 POP PUSH2 0xF05 JUMP JUMPDEST DUP7 DUP4 LT ISZERO PUSH2 0xF47 JUMPI DUP5 DUP10 ADD MLOAD PUSH2 0xF43 PUSH1 0x1F DUP10 AND DUP3 PUSH2 0xE50 JUMP JUMPDEST DUP4 SSTORE POP JUMPDEST PUSH1 0x1 PUSH1 0x2 DUP9 MUL ADD DUP9 SSTORE POP POP POP JUMPDEST POP POP POP POP POP POP JUMP INVALID LOG2 PUSH5 0x6970667358 0x22 SLT KECCAK256 DUP11 DUP3 PUSH3 0x1B21E0 SWAP10 0xA7 0x4C SWAP1 PUSH13 0x37A7BA4E77941FC293F05A72C6 SWAP4 NOT 0x23 NUMBER 0xF9 0x5D 0x28 EXTCODEHASH PUSH5 0x736F6C6343 STOP ADDMOD EQ STOP CALLER "},"methodIdentifiers":{"getProject(string)":"4fa691e2","projectExists(string)":"fcfa958e","registerProject(string,string)":"177b3010","updateStatus(string,bool,bool)":"0d2a0491"}}}}}