{
  "_format": "hh-sol-artifact-1",
  "contractName": "ProjectRegistry",
  "sourceName": "contracts/ProjectRegistry.sol",
  "abi": [
    {
      "anonymous": false,
      "inputs": [
        {
          "indexed": true,
          "internalType": "string",
          "name": "projectId",
          "type": "string"
        },
        {
          "indexed": true,
          "internalType": "address",
          "name": "ngo",
          "type": "address"
        }
      ],
      "name": "ProjectRegistered",
      "type": "event"
    },
    {
      "anonymous": false,
      "inputs": [
        {
          "indexed": true,
          "internalType": "string",
          "name": "projectId",
          "type": "string"
        },
        {
          "indexed": false,
          "internalType": "bool",
          "name": "verified",
          "type": "bool"
        },
        {
          "indexed": false,
          "internalType": "bool",
          "name": "listed",
          "type": "bool"
        }
      ],
      "name": "ProjectStatusUpdated",
      "type": "event"
    },
    {
      "inputs": [
        {
          "internalType": "string",
          "name": "projectId",
          "type": "string"
        }
      ],
      "name": "getProject",
      "outputs": [
        {
          "internalType": "address",
          "name": "ngo",
          "type": "address"
        },
        {
          "internalType": "string",
          "name": "plantationHash",
          "type": "string"
        },
        {
          "internalType": "uint256",
          "name": "createdAt",
          "type": "uint256"
        },
        {
          "internalType": "bool",
          "name": "isVerified",
          "type": "bool"
        },
        {
          "internalType": "bool",
          "name": "isListed",
          "type": "bool"
        }
      ],
      "stateMutability": "view",
      "type": "function"
    },
    {
      "inputs": [
        {
          "internalType": "string",
          "name": "projectId",
          "type": "string"
        }
      ],
      "name": "projectExists",
      "outputs": [
        {
          "internalType": "bool",
          "name": "",
          "type": "bool"
        }
      ],
      "stateMutability": "view",
      "type": "function"
    },
    {
      "inputs": [
        {
          "internalType": "string",
          "name": "projectId",
          "type": "string"
        },
        {
          "internalType": "string",
          "name": "plantationHash",
          "type": "string"
        }
      ],
      "name": "registerProject",
      "outputs": [],
      "stateMutability": "nonpayable",
      "type": "function"
    },
    {
      "inputs": [
        {
          "internalType": "string",
          "name": "projectId",
          "type": "string"
        },
        {
          "internalType": "bool",
          "name": "verified",
          "type": "bool"
        },
        {
          "internalType": "bool",
          "name": "listed",
          "type": "bool"
        }
      ],
      "name": "updateStatus",
      "outputs": [],
      "stateMutability": "nonpayable",
      "type": "function"
    }
  ],
  "bytecode": "0x608060405234801561001057600080fd5b50610f92806100206000396000f3fe608060405234801561001057600080fd5b506004361061004c5760003560e01c80630d2a049114610051578063177b30101461006d5780634fa691e214610089578063fcfa958e146100bd575b600080fd5b61006b60048036038101906100669190610846565b6100ed565b005b610087600480360381019061008291906108ba565b610210565b005b6100a3600480360381019061009e919061093b565b6104bc565b6040516100b4959493929190610a81565b60405180910390f35b6100d760048036038101906100d2919061093b565b610765565b6040516100e49190610adb565b60405180910390f35b600084846040516100ff929190610b35565b908152602001604051809103902060040160009054906101000a900460ff1661015d576040517f08c379a000000000000000000000000000000000000000000000000000000000815260040161015490610b9a565b60405180910390fd5b6000808585604051610170929190610b35565b90815260200160405180910390209050828160040160016101000a81548160ff021916908315150217905550818160040160026101000a81548160ff02191690831515021790555084846040516101c8929190610b35565b60405180910390207f041c64580d69ece87cd5288ff993632208aa4462363a18bba27621c51589d7b38484604051610201929190610bba565b60405180910390a25050505050565b60008484604051610222929190610b35565b908152602001604051809103902060040160009054906101000a900460ff1615610281576040517f08c379a000000000000000000000000000000000000000000000000000000000815260040161027890610c2f565b60405180910390fd5b6040518060e0016040528085858080601f016020809104026020016040519081016040528093929190818152602001838380828437600081840152601f19601f8201169050808301925050505050505081526020013373ffffffffffffffffffffffffffffffffffffffff16815260200183838080601f016020809104026020016040519081016040528093929190818152602001838380828437600081840152601f19601f820116905080830192505050505050508152602001428152602001600115158152602001600015158152602001600015158152506000858560405161036d929190610b35565b908152602001604051809103902060008201518160000190816103909190610e8a565b5060208201518160010160006101000a81548173ffffffffffffffffffffffffffffffffffffffff021916908373ffffffffffffffffffffffffffffffffffffffff16021790555060408201518160020190816103ed9190610e8a565b506060820151816003015560808201518160040160006101000a81548160ff02191690831515021790555060a08201518160040160016101000a81548160ff02191690831515021790555060c08201518160040160026101000a81548160ff0219169083151502179055509050503373ffffffffffffffffffffffffffffffffffffffff168484604051610482929190610b35565b60405180910390207f3a8f8a448d1a644d16017e531e2d5bc31fc5741cb919f2d72a9f1c3efe11213f60405160405180910390a350505050565b6000606060008060008087876040516104d6929190610b35565b908152602001604051809103902060040160009054906101000a900460ff16610534576040517f08c379a000000000000000000000000000000000000000000000000000000000815260040161052b90610b9a565b60405180910390fd5b6000808888604051610547929190610b35565b90815260200160405180910390206040518060e001604052908160008201805461057090610cad565b80601f016020809104026020016040519081016040528092919081815260200182805461059c90610cad565b80156105e95780601f106105be576101008083540402835291602001916105e9565b820191906000526020600020905b8154815290600101906020018083116105cc57829003601f168201915b505050505081526020016001820160009054906101000a900473ffffffffffffffffffffffffffffffffffffffff1673ffffffffffffffffffffffffffffffffffffffff1673ffffffffffffffffffffffffffffffffffffffff16815260200160028201805461065890610cad565b80601f016020809104026020016040519081016040528092919081815260200182805461068490610cad565b80156106d15780601f106106a6576101008083540402835291602001916106d1565b820191906000526020600020905b8154815290600101906020018083116106b457829003601f168201915b50505050508152602001600382015481526020016004820160009054906101000a900460ff161515151581526020016004820160019054906101000a900460ff161515151581526020016004820160029054906101000a900460ff16151515158152505090508060200151816040015182606001518360a001518460c0015195509550955095509550509295509295909350565b6000808383604051610778929190610b35565b908152602001604051809103902060040160009054906101000a900460ff16905092915050565b600080fd5b600080fd5b600080fd5b600080fd5b600080fd5b60008083601f8401126107ce576107cd6107a9565b5b8235905067ffffffffffffffff8111156107eb576107ea6107ae565b5b602083019150836001820283011115610807576108066107b3565b5b9250929050565b60008115159050919050565b6108238161080e565b811461082e57600080fd5b50565b6000813590506108408161081a565b92915050565b600080600080606085870312156108605761085f61079f565b5b600085013567ffffffffffffffff81111561087e5761087d6107a4565b5b61088a878288016107b8565b9450945050602061089d87828801610831565b92505060406108ae87828801610831565b91505092959194509250565b600080600080604085870312156108d4576108d361079f565b5b600085013567ffffffffffffffff8111156108f2576108f16107a4565b5b6108fe878288016107b8565b9450945050602085013567ffffffffffffffff811115610921576109206107a4565b5b61092d878288016107b8565b925092505092959194509250565b600080602083850312156109525761095161079f565b5b600083013567ffffffffffffffff8111156109705761096f6107a4565b5b61097c858286016107b8565b92509250509250929050565b600073ffffffffffffffffffffffffffffffffffffffff82169050919050565b60006109b382610988565b9050919050565b6109c3816109a8565b82525050565b600081519050919050565b600082825260208201905092915050565b60005b83811015610a035780820151818401526020810190506109e8565b60008484015250505050565b6000601f19601f8301169050919050565b6000610a2b826109c9565b610a3581856109d4565b9350610a458185602086016109e5565b610a4e81610a0f565b840191505092915050565b6000819050919050565b610a6c81610a59565b82525050565b610a7b8161080e565b82525050565b600060a082019050610a9660008301886109ba565b8181036020830152610aa88187610a20565b9050610ab76040830186610a63565b610ac46060830185610a72565b610ad16080830184610a72565b9695505050505050565b6000602082019050610af06000830184610a72565b92915050565b600081905092915050565b82818337600083830152505050565b6000610b1c8385610af6565b9350610b29838584610b01565b82840190509392505050565b6000610b42828486610b10565b91508190509392505050565b7f50726f6a656374206e6f7420666f756e64000000000000000000000000000000600082015250565b6000610b846011836109d4565b9150610b8f82610b4e565b602082019050919050565b60006020820190508181036000830152610bb381610b77565b9050919050565b6000604082019050610bcf6000830185610a72565b610bdc6020830184610a72565b9392505050565b7f50726f6a65637420616c72656164792072656769737465726564000000000000600082015250565b6000610c19601a836109d4565b9150610c2482610be3565b602082019050919050565b60006020820190508181036000830152610c4881610c0c565b9050919050565b7f4e487b7100000000000000000000000000000000000000000000000000000000600052604160045260246000fd5b7f4e487b7100000000000000000000000000000000000000000000000000000000600052602260045260246000fd5b60006002820490506001821680610cc557607f821691505b602082108103610cd857610cd7610c7e565b5b50919050565b60008190508160005260206000209050919050565b60006020601f8301049050919050565b600082821b905092915050565b600060088302610d407fffffffffffffffffffffffffffffffffffffffffffffffffffffffffffffffff82610d03565b610d4a8683610d03565b95508019841693508086168417925050509392505050565b6000819050919050565b6000610d87610d82610d7d84610a59565b610d62565b610a59565b9050919050565b6000819050919050565b610da183610d6c565b610db5610dad82610d8e565b848454610d10565b825550505050565b600090565b610dca610dbd565b610dd5818484610d98565b505050565b5b81811015610df957610dee600082610dc2565b600181019050610ddb565b5050565b601f821115610e3e57610e0f81610cde565b610e1884610cf3565b81016020851015610e27578190505b610e3b610e3385610cf3565b830182610dda565b50505b505050565b600082821c905092915050565b6000610e6160001984600802610e43565b1980831691505092915050565b6000610e7a8383610e50565b9150826002028217905092915050565b610e93826109c9565b67ffffffffffffffff811115610eac57610eab610c4f565b5b610eb68254610cad565b610ec1828285610dfd565b600060209050601f831160018114610ef45760008415610ee2578287015190505b610eec8582610e6e565b865550610f54565b601f198416610f0286610cde565b60005b82811015610f2a57848901518255600182019150602085019450602081019050610f05565b86831015610f475784890151610f43601f891682610e50565b8355505b6001600288020188555050505b50505050505056fea26469706673582212208a82621b21e099a74c906c37a7ba4e77941fc293f05a72c693192343f95d283f64736f6c63430008140033",
  "linkReferences": {},
  "deployedLinkReferences": {}
}