{
  "_format": "hh-sol-artifact-1",
  "contractName": "CarbonCreditToken",
  "sourceName": "contracts/CarbonCreditToken.sol",
  "abi": [
    {
      "inputs": [
        {
          "internalType": "address",
          "name": "verificationAddress",
          "type": "address"
        }
      ],
      "stateMutability": "nonpayable",
      "type": "constructor"
    },
    {
      "inputs": [
        {
          "internalType": "address",
          "name": "spender",
          "type": "address"
        },
        {
          "internalType": "uint256",
          "name": "allowance",
          "type": "uint256"
        },
        {
          "internalType": "uint256",
          "name": "needed",
          "type": "uint256"
        }
      ],
      "name": "ERC20InsufficientAllowance",
      "type": "error"
    },
    {
      "inputs": [
        {
          "internalType": "address",
          "name": "sender",
          "type": "address"
        },
        {
          "internalType": "uint256",
          "name": "balance",
          "type": "uint256"
        },
        {
          "internalType": "uint256",
          "name": "needed",
          "type": "uint256"
        }
      ],
      "name": "ERC20InsufficientBalance",
      "type": "error"
    },
    {
      "inputs": [
        {
          "internalType": "address",
          "name": "approver",
          "type": "address"
        }
      ],
      "name": "ERC20InvalidApprover",
      "type": "error"
    },
    {
      "inputs": [
        {
          "internalType": "address",
          "name": "receiver",
          "type": "address"
        }
      ],
      "name": "ERC20InvalidReceiver",
      "type": "error"
    },
    {
      "inputs": [
        {
          "internalType": "address",
          "name": "sender",
          "type": "address"
        }
      ],
      "name": "ERC20InvalidSender",
      "type": "error"
    },
    {
      "inputs": [
        {
          "internalType": "address",
          "name": "spender",
          "type": "address"
        }
      ],
      "name": "ERC20InvalidSpender",
      "type": "error"
    },
    {
      "anonymous": false,
      "inputs": [
        {
          "indexed": true,
          "internalType": "address",
          "name": "owner",
          "type": "address"
        },
        {
          "indexed": true,
          "internalType": "address",
          "name": "spender",
          "type": "address"
        },
        {
          "indexed": false,
          "internalType": "uint256",
          "name": "value",
          "type": "uint256"
        }
      ],
      "name": "Approval",
      "type": "event"
    },
    {
      "anonymous": false,
      "inputs": [
        {
          "indexed": true,
          "internalType": "string",
          "name": "projectId",
          "type": "string"
        },
        {
          "indexed": true,
          "internalType": "address",
          "name": "ngo",
          "type": "address"
        },
        {
          "indexed": false,
          "internalType": "uint256",
          "name": "amount",
          "type": "uint256"
        }
      ],
      "name": "CreditsMinted",
      "type": "event"
    },
    {
      "anonymous": false,
      "inputs": [
        {
          "indexed": true,
          "internalType": "address",
          "name": "from",
          "type": "address"
        },
        {
          "indexed": true,
          "internalType": "address",
          "name": "to",
          "type": "address"
        },
        {
          "indexed": false,
          "internalType": "uint256",
          "name": "value",
          "type": "uint256"
        }
      ],
      "name": "Transfer",
      "type": "event"
    },
    {
      "inputs": [],
      "name": "admin",
      "outputs": [
        {
          "internalType": "address",
          "name": "",
          "type": "address"
        }
      ],
      "stateMutability": "view",
      "type": "function"
    },
    {
      "inputs": [
        {
          "internalType": "address",
          "name": "owner",
          "type": "address"
        },
        {
          "internalType": "address",
          "name": "spender",
          "type": "address"
        }
      ],
      "name": "allowance",
      "outputs": [
        {
          "internalType": "uint256",
          "name": "",
          "type": "uint256"
        }
      ],
      "stateMutability": "view",
      "type": "function"
    },
    {
      "inputs": [
        {
          "internalType": "address",
          "name": "spender",
          "type": "address"
        },
        {
          "internalType": "uint256",
          "name": "value",
          "type": "uint256"
        }
      ],
      "name": "approve",
      "outputs": [
        {
          "internalType": "bool",
          "name": "",
          "type": "bool"
        }
      ],
      "stateMutability": "nonpayable",
      "type": "function"
    },
    {
      "inputs": [
        {
          "internalType": "address",
          "name": "account",
          "type": "address"
        }
      ],
      "name": "balanceOf",
      "outputs": [
        {
          "internalType": "uint256",
          "name": "",
          "type": "uint256"
        }
      ],
      "stateMutability": "view",
      "type": "function"
    },
    {
      "inputs": [
        {
          "internalType": "string",
          "name": "",
          "type": "string"
        }
      ],
      "name": "creditsIssued",
      "outputs": [
        {
          "internalType": "bool",
          "name": "",
          "type": "bool"
        }
      ],
      "stateMutability": "view",
      "type": "function"
    },
    {
      "inputs": [],
      "name": "decimals",
      "outputs": [
        {
          "internalType": "uint8",
          "name": "",
          "type": "uint8"
        }
      ],
      "stateMutability": "view",
      "type": "function"
    },
    {
      "inputs": [
        {
          "internalType": "string",
          "name": "projectId",
          "type": "string"
        },
        {
          "internalType": "address",
          "name": "ngo",
          "type": "address"
        },
        {
          "internalType": "uint256",
          "name": "amount",
          "type": "uint256"
        }
      ],
      "name": "mintCredits",
      "outputs": [],
      "stateMutability": "nonpayable",
      "type": "function"
    },
    {
      "inputs": [],
      "name": "name",
      "outputs": [
        {
          "internalType": "string",
          "name": "",
          "type": "string"
        }
      ],
      "stateMutability": "view",
      "type": "function"
    },
    {
      "inputs": [
        {
          "internalType": "address",
          "name": "newAdmin",
          "type": "address"
        }
      ],
      "name": "setAdmin",
      "outputs": [],
      "stateMutability": "nonpayable",
      "type": "function"
    },
    {
      "inputs": [],
      "name": "symbol",
      "outputs": [
        {
          "internalType": "string",
          "name": "",
          "type": "string"
        }
      ],
      "stateMutability": "view",
      "type": "function"
    },
    {
      "inputs": [],
      "name": "totalSupply",
      "outputs": [
        {
          "internalType": "uint256",
          "name": "",
          "type": "uint256"
        }
      ],
      "stateMutability": "view",
      "type": "function"
    },
    {
      "inputs": [
        {
          "internalType": "address",
          "name": "to",
          "type": "address"
        },
        {
          "internalType": "uint256",
          "name": "value",
          "type": "uint256"
        }
      ],
      "name": "transfer",
      "outputs": [
        {
          "internalType": "bool",
          "name": "",
          "type": "bool"
        }
      ],
      "stateMutability": "nonpayable",
      "type": "function"
    },
    {
      "inputs": [
        {
          "internalType": "address",
          "name": "from",
          "type": "address"
        },
        {
          "internalType": "address",
          "name": "to",
          "type": "address"
        },
        {
          "internalType": "uint256",
          "name": "value",
          "type": "uint256"
        }
      ],
      "name": "transferFrom",
      "outputs": [
        {
          "internalType": "bool",
          "name": "",
          "type": "bool"
        }
      ],
      "stateMutability": "nonpayable",
      "type": "function"
    },
    {
      "inputs": [],
      "name": "verificationContract",
      "outputs": [
        {
          "internalType": "contract Verification",
          "name": "",
          "type": "address"
        }
      ],
      "stateMutability": "view",
      "type": "function"
    }
  ],
  "bytecode": "0x60806040523480156200001157600080fd5b506040516200201a3803806200201a83398181016040528101906200003791906200022e565b6040518060400160405280601081526020017f426c7565436172626f6e437265646974000000000000000000000000000000008152506040518060400160405280600381526020017f42434300000000000000000000000000000000000000000000000000000000008152508160039081620000b49190620004da565b508060049081620000c69190620004da565b505050600073ffffffffffffffffffffffffffffffffffffffff168173ffffffffffffffffffffffffffffffffffffffff16036200013b576040517f08c379a0000000000000000000000000000000000000000000000000000000008152600401620001329062000622565b60405180910390fd5b80600560006101000a81548173ffffffffffffffffffffffffffffffffffffffff021916908373ffffffffffffffffffffffffffffffffffffffff16021790555033600660006101000a81548173ffffffffffffffffffffffffffffffffffffffff021916908373ffffffffffffffffffffffffffffffffffffffff1602179055505062000644565b600080fd5b600073ffffffffffffffffffffffffffffffffffffffff82169050919050565b6000620001f682620001c9565b9050919050565b6200020881620001e9565b81146200021457600080fd5b50565b6000815190506200022881620001fd565b92915050565b600060208284031215620002475762000246620001c4565b5b6000620002578482850162000217565b91505092915050565b600081519050919050565b7f4e487b7100000000000000000000000000000000000000000000000000000000600052604160045260246000fd5b7f4e487b7100000000000000000000000000000000000000000000000000000000600052602260045260246000fd5b60006002820490506001821680620002e257607f821691505b602082108103620002f857620002f76200029a565b5b50919050565b60008190508160005260206000209050919050565b60006020601f8301049050919050565b600082821b905092915050565b600060088302620003627fffffffffffffffffffffffffffffffffffffffffffffffffffffffffffffffff8262000323565b6200036e868362000323565b95508019841693508086168417925050509392505050565b6000819050919050565b6000819050919050565b6000620003bb620003b5620003af8462000386565b62000390565b62000386565b9050919050565b6000819050919050565b620003d7836200039a565b620003ef620003e682620003c2565b84845462000330565b825550505050565b600090565b62000406620003f7565b62000413818484620003cc565b505050565b5b818110156200043b576200042f600082620003fc565b60018101905062000419565b5050565b601f8211156200048a576200045481620002fe565b6200045f8462000313565b810160208510156200046f578190505b620004876200047e8562000313565b83018262000418565b50505b505050565b600082821c905092915050565b6000620004af600019846008026200048f565b1980831691505092915050565b6000620004ca83836200049c565b9150826002028217905092915050565b620004e58262000260565b67ffffffffffffffff8111156200050157620005006200026b565b5b6200050d8254620002c9565b6200051a8282856200043f565b600060209050601f8311600181146200055257600084156200053d578287015190505b620005498582620004bc565b865550620005b9565b601f1984166200056286620002fe565b60005b828110156200058c5784890151825560018201915060208501945060208101905062000565565b86831015620005ac5784890151620005a8601f8916826200049c565b8355505b6001600288020188555050505b505050505050565b600082825260208201905092915050565b7f496e76616c696420766572696669636174696f6e206164647265737300000000600082015250565b60006200060a601c83620005c1565b91506200061782620005d2565b602082019050919050565b600060208201905081810360008301526200063d81620005fb565b9050919050565b6119c680620006546000396000f3fe608060405234801561001057600080fd5b50600436106100ea5760003560e01c806370a082311161008c578063a9059cbb11610066578063a9059cbb1461024d578063dd02d46b1461027d578063dd62ed3e146102ad578063f851a440146102dd576100ea565b806370a08231146101e15780637e2226611461021157806395d89b411461022f576100ea565b806323b872dd116100c857806323b872dd1461015b578063313ce5671461018b5780634bddbfca146101a9578063704b6c02146101c5576100ea565b806306fdde03146100ef578063095ea7b31461010d57806318160ddd1461013d575b600080fd5b6100f76102fb565b6040516101049190611076565b60405180910390f35b61012760048036038101906101229190611140565b61038d565b604051610134919061119b565b60405180910390f35b6101456103b0565b60405161015291906111c5565b60405180910390f35b610175600480360381019061017091906111e0565b6103ba565b604051610182919061119b565b60405180910390f35b6101936103e9565b6040516101a0919061124f565b60405180910390f35b6101c360048036038101906101be91906112cf565b6103f2565b005b6101df60048036038101906101da9190611343565b61067c565b005b6101fb60048036038101906101f69190611343565b6107bf565b60405161020891906111c5565b60405180910390f35b610219610807565b60405161022691906113cf565b60405180910390f35b61023761082d565b6040516102449190611076565b60405180910390f35b61026760048036038101906102629190611140565b6108bf565b604051610274919061119b565b60405180910390f35b6102976004803603810190610292919061151a565b6108e2565b6040516102a4919061119b565b60405180910390f35b6102c760048036038101906102c29190611563565b610918565b6040516102d491906111c5565b60405180910390f35b6102e561099f565b6040516102f291906115b2565b60405180910390f35b60606003805461030a906115fc565b80601f0160208091040260200160405190810160405280929190818152602001828054610336906115fc565b80156103835780601f1061035857610100808354040283529160200191610383565b820191906000526020600020905b81548152906001019060200180831161036657829003601f168201915b5050505050905090565b6000806103986109c5565b90506103a58185856109cd565b600191505092915050565b6000600254905090565b6000806103c56109c5565b90506103d28582856109df565b6103dd858585610a74565b60019150509392505050565b60006012905090565b600660009054906101000a900473ffffffffffffffffffffffffffffffffffffffff1673ffffffffffffffffffffffffffffffffffffffff163373ffffffffffffffffffffffffffffffffffffffff1614610482576040517f08c379a000000000000000000000000000000000000000000000000000000000815260040161047990611679565b60405180910390fd5b600784846040516104949291906116c9565b908152602001604051809103902060009054906101000a900460ff16156104f0576040517f08c379a00000000000000000000000000000000000000000000000000000000081526004016104e790611754565b60405180910390fd5b600560009054906101000a900473ffffffffffffffffffffffffffffffffffffffff1673ffffffffffffffffffffffffffffffffffffffff1663081c8a7b85856040518363ffffffff1660e01b815260040161054d9291906117a1565b602060405180830381865afa15801561056a573d6000803e3d6000fd5b505050506040513d601f19601f8201168201806040525081019061058e91906117f1565b6105cd576040517f08c379a00000000000000000000000000000000000000000000000000000000081526004016105c49061186a565b60405180910390fd5b6001600785856040516105e19291906116c9565b908152602001604051809103902060006101000a81548160ff0219169083151502179055506106108282610b68565b8173ffffffffffffffffffffffffffffffffffffffff1684846040516106379291906116c9565b60405180910390207facf0895021d071532325bdc0c6095f788ca52fb02a8a4a3d67b5860309d710028360405161066e91906111c5565b60405180910390a350505050565b600660009054906101000a900473ffffffffffffffffffffffffffffffffffffffff1673ffffffffffffffffffffffffffffffffffffffff163373ffffffffffffffffffffffffffffffffffffffff161461070c576040517f08c379a000000000000000000000000000000000000000000000000000000000815260040161070390611679565b60405180910390fd5b600073ffffffffffffffffffffffffffffffffffffffff168173ffffffffffffffffffffffffffffffffffffffff160361077b576040517f08c379a0000000000000000000000000000000000000000000000000000000008152600401610772906118d6565b60405180910390fd5b80600660006101000a81548173ffffffffffffffffffffffffffffffffffffffff021916908373ffffffffffffffffffffffffffffffffffffffff16021790555050565b60008060008373ffffffffffffffffffffffffffffffffffffffff1673ffffffffffffffffffffffffffffffffffffffff168152602001908152602001600020549050919050565b600560009054906101000a900473ffffffffffffffffffffffffffffffffffffffff1681565b60606004805461083c906115fc565b80601f0160208091040260200160405190810160405280929190818152602001828054610868906115fc565b80156108b55780601f1061088a576101008083540402835291602001916108b5565b820191906000526020600020905b81548152906001019060200180831161089857829003601f168201915b5050505050905090565b6000806108ca6109c5565b90506108d7818585610a74565b600191505092915050565b6007818051602081018201805184825260208301602085012081835280955050505050506000915054906101000a900460ff1681565b6000600160008473ffffffffffffffffffffffffffffffffffffffff1673ffffffffffffffffffffffffffffffffffffffff16815260200190815260200160002060008373ffffffffffffffffffffffffffffffffffffffff1673ffffffffffffffffffffffffffffffffffffffff16815260200190815260200160002054905092915050565b600660009054906101000a900473ffffffffffffffffffffffffffffffffffffffff1681565b600033905090565b6109da8383836001610bea565b505050565b60006109eb8484610918565b90507fffffffffffffffffffffffffffffffffffffffffffffffffffffffffffffffff811015610a6e5781811015610a5e578281836040517ffb8f41b2000000000000000000000000000000000000000000000000000000008152600401610a55939291906118f6565b60405180910390fd5b610a6d84848484036000610bea565b5b50505050565b600073ffffffffffffffffffffffffffffffffffffffff168373ffffffffffffffffffffffffffffffffffffffff1603610ae65760006040517f96c6fd1e000000000000000000000000000000000000000000000000000000008152600401610add91906115b2565b60405180910390fd5b600073ffffffffffffffffffffffffffffffffffffffff168273ffffffffffffffffffffffffffffffffffffffff1603610b585760006040517fec442f05000000000000000000000000000000000000000000000000000000008152600401610b4f91906115b2565b60405180910390fd5b610b63838383610dc1565b505050565b600073ffffffffffffffffffffffffffffffffffffffff168273ffffffffffffffffffffffffffffffffffffffff1603610bda5760006040517fec442f05000000000000000000000000000000000000000000000000000000008152600401610bd191906115b2565b60405180910390fd5b610be660008383610dc1565b5050565b600073ffffffffffffffffffffffffffffffffffffffff168473ffffffffffffffffffffffffffffffffffffffff1603610c5c5760006040517fe602df05000000000000000000000000000000000000000000000000000000008152600401610c5391906115b2565b60405180910390fd5b600073ffffffffffffffffffffffffffffffffffffffff168373ffffffffffffffffffffffffffffffffffffffff1603610cce5760006040517f94280d62000000000000000000000000000000000000000000000000000000008152600401610cc591906115b2565b60405180910390fd5b81600160008673ffffffffffffffffffffffffffffffffffffffff1673ffffffffffffffffffffffffffffffffffffffff16815260200190815260200160002060008573ffffffffffffffffffffffffffffffffffffffff1673ffffffffffffffffffffffffffffffffffffffff168152602001908152602001600020819055508015610dbb578273ffffffffffffffffffffffffffffffffffffffff168473ffffffffffffffffffffffffffffffffffffffff167f8c5be1e5ebec7d5bd14f71427d1e84f3dd0314c0f7b2291e5b200ac8c7c3b92584604051610db291906111c5565b60405180910390a35b50505050565b600073ffffffffffffffffffffffffffffffffffffffff168373ffffffffffffffffffffffffffffffffffffffff1603610e13578060026000828254610e07919061195c565b92505081905550610ee6565b60008060008573ffffffffffffffffffffffffffffffffffffffff1673ffffffffffffffffffffffffffffffffffffffff16815260200190815260200160002054905081811015610e9f578381836040517fe450d38c000000000000000000000000000000000000000000000000000000008152600401610e96939291906118f6565b60405180910390fd5b8181036000808673ffffffffffffffffffffffffffffffffffffffff1673ffffffffffffffffffffffffffffffffffffffff16815260200190815260200160002081905550505b600073ffffffffffffffffffffffffffffffffffffffff168273ffffffffffffffffffffffffffffffffffffffff1603610f2f5780600260008282540392505081905550610f7c565b806000808473ffffffffffffffffffffffffffffffffffffffff1673ffffffffffffffffffffffffffffffffffffffff168152602001908152602001600020600082825401925050819055505b8173ffffffffffffffffffffffffffffffffffffffff168373ffffffffffffffffffffffffffffffffffffffff167fddf252ad1be2c89b69c2b068fc378daa952ba7f163c4a11628f55a4df523b3ef83604051610fd991906111c5565b60405180910390a3505050565b600081519050919050565b600082825260208201905092915050565b60005b83811015611020578082015181840152602081019050611005565b60008484015250505050565b6000601f19601f8301169050919050565b600061104882610fe6565b6110528185610ff1565b9350611062818560208601611002565b61106b8161102c565b840191505092915050565b60006020820190508181036000830152611090818461103d565b905092915050565b6000604051905090565b600080fd5b600080fd5b600073ffffffffffffffffffffffffffffffffffffffff82169050919050565b60006110d7826110ac565b9050919050565b6110e7816110cc565b81146110f257600080fd5b50565b600081359050611104816110de565b92915050565b6000819050919050565b61111d8161110a565b811461112857600080fd5b50565b60008135905061113a81611114565b92915050565b60008060408385031215611157576111566110a2565b5b6000611165858286016110f5565b92505060206111768582860161112b565b9150509250929050565b60008115159050919050565b61119581611180565b82525050565b60006020820190506111b0600083018461118c565b92915050565b6111bf8161110a565b82525050565b60006020820190506111da60008301846111b6565b92915050565b6000806000606084860312156111f9576111f86110a2565b5b6000611207868287016110f5565b9350506020611218868287016110f5565b92505060406112298682870161112b565b9150509250925092565b600060ff82169050919050565b61124981611233565b82525050565b60006020820190506112646000830184611240565b92915050565b600080fd5b600080fd5b600080fd5b60008083601f84011261128f5761128e61126a565b5b8235905067ffffffffffffffff8111156112ac576112ab61126f565b5b6020830191508360018202830111156112c8576112c7611274565b5b9250929050565b600080600080606085870312156112e9576112e86110a2565b5b600085013567ffffffffffffffff811115611307576113066110a7565b5b61131387828801611279565b94509450506020611326878288016110f5565b92505060406113378782880161112b565b91505092959194509250565b600060208284031215611359576113586110a2565b5b6000611367848285016110f5565b91505092915050565b6000819050919050565b600061139561139061138b846110ac565b611370565b6110ac565b9050919050565b60006113a78261137a565b9050919050565b60006113b98261139c565b9050919050565b6113c9816113ae565b82525050565b60006020820190506113e460008301846113c0565b92915050565b600080fd5b7f4e487b7100000000000000000000000000000000000000000000000000000000600052604160045260246000fd5b6114278261102c565b810181811067ffffffffffffffff82111715611446576114456113ef565b5b80604052505050565b6000611459611098565b9050611465828261141e565b919050565b600067ffffffffffffffff821115611485576114846113ef565b5b61148e8261102c565b9050602081019050919050565b82818337600083830152505050565b60006114bd6114b88461146a565b61144f565b9050828152602081018484840111156114d9576114d86113ea565b5b6114e484828561149b565b509392505050565b600082601f8301126115015761150061126a565b5b81356115118482602086016114aa565b91505092915050565b6000602082840312156115305761152f6110a2565b5b600082013567ffffffffffffffff81111561154e5761154d6110a7565b5b61155a848285016114ec565b91505092915050565b6000806040838503121561157a576115796110a2565b5b6000611588858286016110f5565b9250506020611599858286016110f5565b9150509250929050565b6115ac816110cc565b82525050565b60006020820190506115c760008301846115a3565b92915050565b7f4e487b7100000000000000000000000000000000000000000000000000000000600052602260045260246000fd5b6000600282049050600182168061161457607f821691505b602082108103611627576116266115cd565b5b50919050565b7f4e6f742061646d696e0000000000000000000000000000000000000000000000600082015250565b6000611663600983610ff1565b915061166e8261162d565b602082019050919050565b6000602082019050818103600083015261169281611656565b9050919050565b600081905092915050565b60006116b08385611699565b93506116bd83858461149b565b82840190509392505050565b60006116d68284866116a4565b91508190509392505050565b7f4372656469747320616c72656164792069737375656420666f7220746869732060008201527f70726f6a65637400000000000000000000000000000000000000000000000000602082015250565b600061173e602783610ff1565b9150611749826116e2565b604082019050919050565b6000602082019050818103600083015261176d81611731565b9050919050565b60006117808385610ff1565b935061178d83858461149b565b6117968361102c565b840190509392505050565b600060208201905081810360008301526117bc818486611774565b90509392505050565b6117ce81611180565b81146117d957600080fd5b50565b6000815190506117eb816117c5565b92915050565b600060208284031215611807576118066110a2565b5b6000611815848285016117dc565b91505092915050565b7f50726f6a656374206e6f7420656c696769626c6520666f722063726564697473600082015250565b6000611854602083610ff1565b915061185f8261181e565b602082019050919050565b6000602082019050818103600083015261188381611847565b9050919050565b7f496e76616c6964206e65772061646d696e000000000000000000000000000000600082015250565b60006118c0601183610ff1565b91506118cb8261188a565b602082019050919050565b600060208201905081810360008301526118ef816118b3565b9050919050565b600060608201905061190b60008301866115a3565b61191860208301856111b6565b61192560408301846111b6565b949350505050565b7f4e487b7100000000000000000000000000000000000000000000000000000000600052601160045260246000fd5b60006119678261110a565b91506119728361110a565b925082820190508082111561198a5761198961192d565b5b9291505056fea264697066735822122000271181a0547ceb774481aed70f28d782c6a2aa39e9b16ff449c78322f6adb064736f6c63430008140033",
  "linkReferences": {},
  "deployedLinkReferences": {}
}