{
  "_format": "hh-sol-artifact-1",
  "contractName": "Marketplace",
  "sourceName": "contracts/Marketplace.sol",
  "abi": [
    {
      "inputs": [
        {
          "internalType": "address",
          "name": "tokenAddress",
          "type": "address"
        }
      ],
      "stateMutability": "nonpayable",
      "type": "constructor"
    },
    {
      "anonymous": false,
      "inputs": [
        {
          "indexed": true,
          "internalType": "uint256",
          "name": "listingId",
          "type": "uint256"
        }
      ],
      "name": "ListingCanceled",
      "type": "event"
    },
    {
      "anonymous": false,
      "inputs": [
        {
          "indexed": true,
          "internalType": "uint256",
          "name": "listingId",
          "type": "uint256"
        },
        {
          "indexed": false,
          "internalType": "uint256",
          "name": "newPrice",
          "type": "uint256"
        }
      ],
      "name": "ListingUpdated",
      "type": "event"
    },
    {
      "anonymous": false,
      "inputs": [
        {
          "indexed": true,
          "internalType": "uint256",
          "name": "listingId",
          "type": "uint256"
        },
        {
          "indexed": true,
          "internalType": "address",
          "name": "seller",
          "type": "address"
        },
        {
          "indexed": false,
          "internalType": "uint256",
          "name": "amount",
          "type": "uint256"
        },
        {
          "indexed": false,
          "internalType": "uint256",
          "name": "price",
          "type": "uint256"
        }
      ],
      "name": "TokensListed",
      "type": "event"
    },
    {
      "anonymous": false,
      "inputs": [
        {
          "indexed": true,
          "internalType": "uint256",
          "name": "listingId",
          "type": "uint256"
        },
        {
          "indexed": true,
          "internalType": "address",
          "name": "buyer",
          "type": "address"
        },
        {
          "indexed": false,
          "internalType": "uint256",
          "name": "totalPaid",
          "type": "uint256"
        },
        {
          "indexed": false,
          "internalType": "uint256",
          "name": "tokensBought",
          "type": "uint256"
        }
      ],
      "name": "TokensPurchased",
      "type": "event"
    },
    {
      "inputs": [],
      "name": "admin",
      "outputs": [
        {
          "internalType": "address",
          "name": "",
          "type": "address"
        }
      ],
      "stateMutability": "view",
      "type": "function"
    },
    {
      "inputs": [
        {
          "internalType": "uint256",
          "name": "listingId",
          "type": "uint256"
        },
        {
          "internalType": "uint256",
          "name": "amountToBuy",
          "type": "uint256"
        }
      ],
      "name": "buyTokens",
      "outputs": [],
      "stateMutability": "payable",
      "type": "function"
    },
    {
      "inputs": [
        {
          "internalType": "uint256",
          "name": "listingId",
          "type": "uint256"
        }
      ],
      "name": "cancelListing",
      "outputs": [],
      "stateMutability": "nonpayable",
      "type": "function"
    },
    {
      "inputs": [
        {
          "internalType": "address",
          "name": "newAdmin",
          "type": "address"
        }
      ],
      "name": "changeAdmin",
      "outputs": [],
      "stateMutability": "nonpayable",
      "type": "function"
    },
    {
      "inputs": [
        {
          "internalType": "uint256",
          "name": "amount",
          "type": "uint256"
        },
        {
          "internalType": "uint256",
          "name": "price",
          "type": "uint256"
        }
      ],
      "name": "listTokens",
      "outputs": [
        {
          "internalType": "uint256",
          "name": "",
          "type": "uint256"
        }
      ],
      "stateMutability": "nonpayable",
      "type": "function"
    },
    {
      "inputs": [],
      "name": "listingCounter",
      "outputs": [
        {
          "internalType": "uint256",
          "name": "",
          "type": "uint256"
        }
      ],
      "stateMutability": "view",
      "type": "function"
    },
    {
      "inputs": [
        {
          "internalType": "uint256",
          "name": "",
          "type": "uint256"
        }
      ],
      "name": "listings",
      "outputs": [
        {
          "internalType": "address",
          "name": "seller",
          "type": "address"
        },
        {
          "internalType": "uint256",
          "name": "amount",
          "type": "uint256"
        },
        {
          "internalType": "uint256",
          "name": "price",
          "type": "uint256"
        },
        {
          "internalType": "bool",
          "name": "active",
          "type": "bool"
        }
      ],
      "stateMutability": "view",
      "type": "function"
    },
    {
      "inputs": [],
      "name": "marketplaceFeePercentage",
      "outputs": [
        {
          "internalType": "uint256",
          "name": "",
          "type": "uint256"
        }
      ],
      "stateMutability": "view",
      "type": "function"
    },
    {
      "inputs": [],
      "name": "token",
      "outputs": [
        {
          "internalType": "contract CarbonCreditToken",
          "name": "",
          "type": "address"
        }
      ],
      "stateMutability": "view",
      "type": "function"
    },
    {
      "inputs": [
        {
          "internalType": "uint256",
          "name": "newFee",
          "type": "uint256"
        }
      ],
      "name": "updateMarketplaceFee",
      "outputs": [],
      "stateMutability": "nonpayable",
      "type": "function"
    },
    {
      "inputs": [
        {
          "internalType": "uint256",
          "name": "listingId",
          "type": "uint256"
        },
        {
          "internalType": "uint256",
          "name": "newPrice",
          "type": "uint256"
        }
      ],
      "name": "updatePrice",
      "outputs": [],
      "stateMutability": "nonpayable",
      "type": "function"
    }
  ],
  "bytecode": "0x6080604052600280553480156200001557600080fd5b5060405162001bc038038062001bc083398181016040528101906200003b91906200019f565b600073ffffffffffffffffffffffffffffffffffffffff168173ffffffffffffffffffffffffffffffffffffffff1603620000ad576040517f08c379a0000000000000000000000000000000000000000000000000000000008152600401620000a49062000232565b60405180910390fd5b806000806101000a81548173ffffffffffffffffffffffffffffffffffffffff021916908373ffffffffffffffffffffffffffffffffffffffff16021790555033600160006101000a81548173ffffffffffffffffffffffffffffffffffffffff021916908373ffffffffffffffffffffffffffffffffffffffff1602179055505062000254565b600080fd5b600073ffffffffffffffffffffffffffffffffffffffff82169050919050565b600062000167826200013a565b9050919050565b62000179816200015a565b81146200018557600080fd5b50565b60008151905062000199816200016e565b92915050565b600060208284031215620001b857620001b762000135565b5b6000620001c88482850162000188565b91505092915050565b600082825260208201905092915050565b7f496e76616c696420746f6b656e20616464726573730000000000000000000000600082015250565b60006200021a601583620001d1565b91506200022782620001e2565b602082019050919050565b600060208201905081810360008301526200024d816200020b565b9050919050565b61195c80620002646000396000f3fe60806040526004361061009c5760003560e01c806382367b2d1161006457806382367b2d146101655780638f2839701461018e578063de74e57b146101b7578063e30e5ae9146101f7578063f851a44014610234578063fc0c546a1461025f5761009c565b8063305a67a8146100a157806330eb80cd146100ca5780634adadddf146100f35780636c2c9c7d1461011e5780637975ce2814610149575b600080fd5b3480156100ad57600080fd5b506100c860048036038101906100c39190610edc565b61028a565b005b3480156100d657600080fd5b506100f160048036038101906100ec9190610edc565b6103d2565b005b3480156100ff57600080fd5b506101086104b0565b6040516101159190610f18565b60405180910390f35b34801561012a57600080fd5b506101336104b6565b6040516101409190610f18565b60405180910390f35b610163600480360381019061015e9190610f33565b6104bc565b005b34801561017157600080fd5b5061018c60048036038101906101879190610f33565b6108fb565b005b34801561019a57600080fd5b506101b560048036038101906101b09190610fd1565b610a7e565b005b3480156101c357600080fd5b506101de60048036038101906101d99190610edc565b610b52565b6040516101ee9493929190611028565b60405180910390f35b34801561020357600080fd5b5061021e60048036038101906102199190610f33565b610baf565b60405161022b9190610f18565b60405180910390f35b34801561024057600080fd5b50610249610e57565b604051610256919061106d565b60405180910390f35b34801561026b57600080fd5b50610274610e7d565b60405161028191906110e7565b60405180910390f35b60006003600083815260200190815260200160002090508060030160009054906101000a900460ff166102f2576040517f08c379a00000000000000000000000000000000000000000000000000000000081526004016102e99061115f565b60405180910390fd5b8060000160009054906101000a900473ffffffffffffffffffffffffffffffffffffffff1673ffffffffffffffffffffffffffffffffffffffff163373ffffffffffffffffffffffffffffffffffffffff1614610384576040517f08c379a000000000000000000000000000000000000000000000000000000000815260040161037b906111cb565b60405180910390fd5b60008160030160006101000a81548160ff021916908315150217905550817f5d7a33421ffa4bc07eb8929c5ace6393d3aa5ec3775e4e2f442527876b7dbe8860405160405180910390a25050565b600160009054906101000a900473ffffffffffffffffffffffffffffffffffffffff1673ffffffffffffffffffffffffffffffffffffffff163373ffffffffffffffffffffffffffffffffffffffff1614610462576040517f08c379a000000000000000000000000000000000000000000000000000000000815260040161045990611237565b60405180910390fd5b600a8111156104a6576040517f08c379a000000000000000000000000000000000000000000000000000000000815260040161049d906112a3565b60405180910390fd5b8060028190555050565b60025481565b60045481565b60006003600084815260200190815260200160002090508060030160009054906101000a900460ff16610524576040517f08c379a000000000000000000000000000000000000000000000000000000000815260040161051b9061130f565b60405180910390fd5b60008211610567576040517f08c379a000000000000000000000000000000000000000000000000000000000815260040161055e9061137b565b60405180910390fd5b80600101548211156105ae576040517f08c379a00000000000000000000000000000000000000000000000000000000081526004016105a5906113e7565b60405180910390fd5b8060000160009054906101000a900473ffffffffffffffffffffffffffffffffffffffff1673ffffffffffffffffffffffffffffffffffffffff163373ffffffffffffffffffffffffffffffffffffffff1603610640576040517f08c379a000000000000000000000000000000000000000000000000000000000815260040161063790611453565b60405180910390fd5b600081600201548361065291906114a2565b9050803414610696576040517f08c379a000000000000000000000000000000000000000000000000000000000815260040161068d90611530565b60405180910390fd5b60006064600254836106a891906114a2565b6106b2919061157f565b9050600081836106c291906115b0565b90508360000160009054906101000a900473ffffffffffffffffffffffffffffffffffffffff1673ffffffffffffffffffffffffffffffffffffffff166108fc829081150290604051600060405180830381858888f1935050505015801561072e573d6000803e3d6000fd5b50600160009054906101000a900473ffffffffffffffffffffffffffffffffffffffff1673ffffffffffffffffffffffffffffffffffffffff166108fc839081150290604051600060405180830381858888f19350505050158015610797573d6000803e3d6000fd5b5060008054906101000a900473ffffffffffffffffffffffffffffffffffffffff1673ffffffffffffffffffffffffffffffffffffffff166323b872dd8560000160009054906101000a900473ffffffffffffffffffffffffffffffffffffffff1633886040518463ffffffff1660e01b8152600401610819939291906115e4565b6020604051808303816000875af1158015610838573d6000803e3d6000fd5b505050506040513d601f19601f8201168201806040525081019061085c9190611647565b508484600101600082825461087191906115b0565b9250508190555060008460010154036108a25760008460030160006101000a81548160ff0219169083151502179055505b3373ffffffffffffffffffffffffffffffffffffffff16867fe8d7e55108ae7ddb60173461d2950c7a8e22a7ac7f442825564fe84c8c6f9a3885886040516108eb929190611674565b60405180910390a3505050505050565b60006003600084815260200190815260200160002090508060030160009054906101000a900460ff16610963576040517f08c379a000000000000000000000000000000000000000000000000000000000815260040161095a906116e9565b60405180910390fd5b8060000160009054906101000a900473ffffffffffffffffffffffffffffffffffffffff1673ffffffffffffffffffffffffffffffffffffffff163373ffffffffffffffffffffffffffffffffffffffff16146109f5576040517f08c379a00000000000000000000000000000000000000000000000000000000081526004016109ec906111cb565b60405180910390fd5b60008211610a38576040517f08c379a0000000000000000000000000000000000000000000000000000000008152600401610a2f90611755565b60405180910390fd5b818160020181905550827f66bcde9f7aec9b81719a4fdec54cbafbf6c834d1f2f989d9cd2134dab8d0c0de83604051610a719190610f18565b60405180910390a2505050565b600160009054906101000a900473ffffffffffffffffffffffffffffffffffffffff1673ffffffffffffffffffffffffffffffffffffffff163373ffffffffffffffffffffffffffffffffffffffff1614610b0e576040517f08c379a0000000000000000000000000000000000000000000000000000000008152600401610b0590611237565b60405180910390fd5b80600160006101000a81548173ffffffffffffffffffffffffffffffffffffffff021916908373ffffffffffffffffffffffffffffffffffffffff16021790555050565b60036020528060005260406000206000915090508060000160009054906101000a900473ffffffffffffffffffffffffffffffffffffffff16908060010154908060020154908060030160009054906101000a900460ff16905084565b6000808311610bf3576040517f08c379a0000000000000000000000000000000000000000000000000000000008152600401610bea906117c1565b60405180910390fd5b60008211610c36576040517f08c379a0000000000000000000000000000000000000000000000000000000008152600401610c2d90611755565b60405180910390fd5b8260008054906101000a900473ffffffffffffffffffffffffffffffffffffffff1673ffffffffffffffffffffffffffffffffffffffff1663dd62ed3e33306040518363ffffffff1660e01b8152600401610c929291906117e1565b602060405180830381865afa158015610caf573d6000803e3d6000fd5b505050506040513d601f19601f82011682018060405250810190610cd3919061181f565b1015610d14576040517f08c379a0000000000000000000000000000000000000000000000000000000008152600401610d0b906118be565b60405180910390fd5b60046000815480929190610d27906118de565b919050555060405180608001604052803373ffffffffffffffffffffffffffffffffffffffff1681526020018481526020018381526020016001151581525060036000600454815260200190815260200160002060008201518160000160006101000a81548173ffffffffffffffffffffffffffffffffffffffff021916908373ffffffffffffffffffffffffffffffffffffffff160217905550602082015181600101556040820151816002015560608201518160030160006101000a81548160ff0219169083151502179055509050503373ffffffffffffffffffffffffffffffffffffffff166004547f6a13550b6bc2a70f6b172f3dc2294b258feebd5e6b82df7ebf2f2612a3114ddf8585604051610e44929190611674565b60405180910390a3600454905092915050565b600160009054906101000a900473ffffffffffffffffffffffffffffffffffffffff1681565b60008054906101000a900473ffffffffffffffffffffffffffffffffffffffff1681565b600080fd5b6000819050919050565b610eb981610ea6565b8114610ec457600080fd5b50565b600081359050610ed681610eb0565b92915050565b600060208284031215610ef257610ef1610ea1565b5b6000610f0084828501610ec7565b91505092915050565b610f1281610ea6565b82525050565b6000602082019050610f2d6000830184610f09565b92915050565b60008060408385031215610f4a57610f49610ea1565b5b6000610f5885828601610ec7565b9250506020610f6985828601610ec7565b9150509250929050565b600073ffffffffffffffffffffffffffffffffffffffff82169050919050565b6000610f9e82610f73565b9050919050565b610fae81610f93565b8114610fb957600080fd5b50565b600081359050610fcb81610fa5565b92915050565b600060208284031215610fe757610fe6610ea1565b5b6000610ff584828501610fbc565b91505092915050565b61100781610f93565b82525050565b60008115159050919050565b6110228161100d565b82525050565b600060808201905061103d6000830187610ffe565b61104a6020830186610f09565b6110576040830185610f09565b6110646060830184611019565b95945050505050565b60006020820190506110826000830184610ffe565b92915050565b6000819050919050565b60006110ad6110a86110a384610f73565b611088565b610f73565b9050919050565b60006110bf82611092565b9050919050565b60006110d1826110b4565b9050919050565b6110e1816110c6565b82525050565b60006020820190506110fc60008301846110d8565b92915050565b600082825260208201905092915050565b7f416c726561647920696e61637469766500000000000000000000000000000000600082015250565b6000611149601083611102565b915061115482611113565b602082019050919050565b600060208201905081810360008301526111788161113c565b9050919050565b7f4e6f74207468652073656c6c6572000000000000000000000000000000000000600082015250565b60006111b5600e83611102565b91506111c08261117f565b602082019050919050565b600060208201905081810360008301526111e4816111a8565b9050919050565b7f4e6f742061646d696e0000000000000000000000000000000000000000000000600082015250565b6000611221600983611102565b915061122c826111eb565b602082019050919050565b6000602082019050818103600083015261125081611214565b9050919050565b7f43616e6e6f742065786365656420313025000000000000000000000000000000600082015250565b600061128d601183611102565b915061129882611257565b602082019050919050565b600060208201905081810360008301526112bc81611280565b9050919050565b7f4c697374696e6720696e61637469766500000000000000000000000000000000600082015250565b60006112f9601083611102565b9150611304826112c3565b602082019050919050565b60006020820190508181036000830152611328816112ec565b9050919050565b7f496e76616c696420616d6f756e74000000000000000000000000000000000000600082015250565b6000611365600e83611102565b91506113708261132f565b602082019050919050565b6000602082019050818103600083015261139481611358565b9050919050565b7f4e6f7420656e6f75676820746f6b656e7320617661696c61626c650000000000600082015250565b60006113d1601b83611102565b91506113dc8261139b565b602082019050919050565b60006020820190508181036000830152611400816113c4565b9050919050565b7f43616e6e6f742062757920796f7572206f776e20746f6b656e73000000000000600082015250565b600061143d601a83611102565b915061144882611407565b602082019050919050565b6000602082019050818103600083015261146c81611430565b9050919050565b7f4e487b7100000000000000000000000000000000000000000000000000000000600052601160045260246000fd5b60006114ad82610ea6565b91506114b883610ea6565b92508282026114c681610ea6565b915082820484148315176114dd576114dc611473565b5b5092915050565b7f496e636f7272656374207061796d656e7420616d6f756e740000000000000000600082015250565b600061151a601883611102565b9150611525826114e4565b602082019050919050565b600060208201905081810360008301526115498161150d565b9050919050565b7f4e487b7100000000000000000000000000000000000000000000000000000000600052601260045260246000fd5b600061158a82610ea6565b915061159583610ea6565b9250826115a5576115a4611550565b5b828204905092915050565b60006115bb82610ea6565b91506115c683610ea6565b92508282039050818111156115de576115dd611473565b5b92915050565b60006060820190506115f96000830186610ffe565b6116066020830185610ffe565b6116136040830184610f09565b949350505050565b6116248161100d565b811461162f57600080fd5b50565b6000815190506116418161161b565b92915050565b60006020828403121561165d5761165c610ea1565b5b600061166b84828501611632565b91505092915050565b60006040820190506116896000830185610f09565b6116966020830184610f09565b9392505050565b7f4c697374696e67206e6f74206163746976650000000000000000000000000000600082015250565b60006116d3601283611102565b91506116de8261169d565b602082019050919050565b60006020820190508181036000830152611702816116c6565b9050919050565b7f5072696365206d757374206265203e2030000000000000000000000000000000600082015250565b600061173f601183611102565b915061174a82611709565b602082019050919050565b6000602082019050818103600083015261176e81611732565b9050919050565b7f416d6f756e74206d757374206265203e20300000000000000000000000000000600082015250565b60006117ab601283611102565b91506117b682611775565b602082019050919050565b600060208201905081810360008301526117da8161179e565b9050919050565b60006040820190506117f66000830185610ffe565b6118036020830184610ffe565b9392505050565b60008151905061181981610eb0565b92915050565b60006020828403121561183557611834610ea1565b5b60006118438482850161180a565b91505092915050565b7f4d61726b6574706c616365206e6f7420617070726f76656420746f207472616e60008201527f7366657220746f6b656e73000000000000000000000000000000000000000000602082015250565b60006118a8602b83611102565b91506118b38261184c565b604082019050919050565b600060208201905081810360008301526118d78161189b565b9050919050565b60006118e982610ea6565b91507fffffffffffffffffffffffffffffffffffffffffffffffffffffffffffffffff820361191b5761191a611473565b5b60018201905091905056fea2646970667358221220ce8b4985060c6e2370798a1453bb533fb9a508d20822396a527f437b67c4e55564736f6c63430008140033",
  "linkReferences": {},
  "deployedLinkReferences": {}
}